:03000000021D10CE
:101D100078FFE4F6D8FD9000007F007E07E4F0A392
:0A1D2000DFFCDEFA758120021D656C
:10289F001225C61220DC122B0B122B22122494129B
:0828AF002B31781F74FFF222A7
:102A38003002FD122A5CC2AF1225C6D2AFE4780A72
:022A4800F22278
:102A4A003002FD122A5CC2AF1224D4D2AFE4780A53
:022A5A00F22266
:100E6800784E7401F212289F7FFA122AAC7F14126E
:100E78002A9C78277402F23002FDC202780EE275CD
:100E8800F00A84E5F07020780AE2FF6009640260E5
:100E980016EF640360117827E270067402F21227D5
:100EA800F612215312134A122B29784DEFF2600FD4
:100EB800E2C3941050047F1480027F28122A9C7881
:100EC8004DE2FF24FE601A24F27003020F8124F021
:100ED8007003021022241F6003021068784E740108
:100EE800F2EFB40205784E74FFF2780AE2B40B0010
:100EF8004003021068900F04F8282873020F250297
:100F08000F27020F31020F31020F3B020F45020F6C
:100F18004F020F59020F63020F6D020F7780467858
:100F28004EE2FF122986021068784EE2FF121DAACF
:100F3800021068784EE2FF121F50021068784EE2E5
:100F4800FF12292C021068784EE2FF1228E70210DF
:100F580068784EE2FF1228FE021068784EE2FF120F
:100F68002915021068784EE2FF12281702106878D7
:100F78004EE2FF122943021068780AE2B40B0040DF
:100F880003021068900F93F8282873020FB4020F19
:100F9800B7020FEA020FF402100402101D02101D1E
:100FA80002101D02101D02101D02101D02105278A1
:100FB80009E2FF24FD601A14601D24F9501F24095A
:100FC8006003021068781F7402F2780AEFF20210C8
:100FD80068781F74068003E47834F280007809E2A8
:100FE8008070781FE270101229B08071781FE2B407
:100FF800030512288680661226A180647834E2FFF1
:101008007005782AE26004EFB40905122B328005D6
:10101800122A12804B122A4A8043780AE2B40B0043
:10102800503E901031F828287302105202105902CD
:10103800106502106502105F021062021062021051
:1010480062021062021062021062780A7401F28071
:101058000FE4780AF28009122B31122A38122B0079
:10106800780AE2B40B00505D901077F828287302D4
:10107800109802109D0210A20210A70210AC0210D4
:10108800B10210B60210BB0210C00210C50210CA8D
:101098001227608030121FDC802B121A95802612CE
:1010A80018858021120884801C1227338017122B80
:1010B800148012121E38800D122B1B8008121EC4B9
:1010C8008003122A6C780FE204F2780EE204F23000
:1010D80003257810E2B4041F780EE275F00584E564
:1010E800F07014C37803E264809480400A08E22414
:1010F80001F218E23400F2780FE2D3943B4002E4A4
:10110800F2780EE2D3943B5003020E7FE4F27805A6
:10111800E204F27810E275F003A42454F582E43472
:101128000EF583E493FE740193AA06F912187F0260
:021138000E7F28
:0700030000000000000022D4
:0A2AF500EF60077E05DEFE1F80F68D
:012AFF0022B4
:0E2AAC00EF600B7E067DD3DDFEDEFC1F80F2A8
:012ABA0022F9
:100B870000007F7F40407F7F007F7F08087F7F00D6
:100B9700031F227E7F03000000007F7F49497F36C5
:100BA7000040407F7F4040007F7F4848783000000A
:100BB70000003E7F41416322007F7F484878300034
:100BC700031F227E7F0300000000707808087F7FE4
:100BD7000040407F7F4040007F7F49497F360000CB
:100BE70000007F7F40407F7F0040407F7F40400084
:100BF7007F7F08087F7F000000003E7F414163221E
:100C07000060731B0F7C70007F7F49494F460000CF
:100C170000007F7F49497F36003E7F4141632200C4
:100C27007F7F081463630000007C7C40407C7C006D
:100C37007C7C10107C7C000C3C48787C0C0000000D
:100C4700007C7C54547C280040407C7C4040007CE5
:100C57007C5050702000000000387C44446C280011
:100C67007C7C50507020000C3C48787C0C000000C5
:100C770000607010107C7C0040407C7C4040007C11
:100C87007C54547C28000000007C7C40407C7C0025
:100C970040407C7C4040007C7C10107C7C00000045
:100CA70000387C44446C280064741C187060007C15
:100CB7007C54545C48000000007C7C54547C280021
:100CC700387C44446C28007C7C10386C440000005D
:100CD7000000607F7F60006F6F007F3F101F103F35
:100CE7007F007F7F49490000007F7F63361C001F1C
:100CF7003F6C6C3F1F00607F7F60007F7F4949002A
:100D0700003F7F4C7F3F007F7F0303003F7F4C7F87
:100D17003F007F7F6C6C3700000000003E4141714F
:100D270049493E000000063A433A06000000000029
:100D3700007F7F6868003E7F417F3E007F3F180C41
:100D47007E7F00607F7F6000007F7F41633E1C00E5
:100D57006F6F00327B496F26007F7F446C3800003D
:100D6700007F3F101F103F7F006F6F007F7F63364C
:100D77001C007F7F6C6C3800007F7F497F36007FC7
:100D87007F6C6C37006F6F003E7F414D2E00000077
:100D970000003E41417149493E000000000000004B
:100DA70011117D11110000000000000000007F7F7D
:100DB700417F7F007F7F381C7F7F0000000000009D
:100DC700000000007F7F417F7F007F7F6C6C007F8A
:100DD7007F6C6C0000000000607F7F6000730B7EFB
:100DE7007C007F7F4C380036007F7F49497F360083
:100DF7007F7F4C4E7B310036000000705070003E04
:100E07007F6341410000000011117D1111000000B6
:100E1700007F413E003249260022493600234539EA
:100E27000022493600207F0060F0F8FC7E3F7EFC00
:100E3700F8F0600060F0F8FC7E3F7EFCF8F06000A0
:100E4700000012345555555555543210052AD9020C
:100E57002450022450022450002AE700000000001A
:010E6700008A
:102513008102008203FFFF810D06810A0081090207
:0E252300810500811000810000810100C1804F
:1020DC00E4F5937594FFF59175920FF5957596FF50
:1020EC00F5B175B2F7F5B375B4FE783CE2780DF244
:1020FC00C2021223C27806E4F2087400F2087408D3
:10210C00F2784F740EF208742FF2E4FFEFC39418B8
:10211C005034784FE2FC08E2F5828C83E493FE782D
:10212C0006E2FB08E2FA08E2F9EE1217CF0F78503C
:10213C00E22401F218E23400F27808E22401F218E9
:06214C00E23400F280C63F
:01215200226A
:102A5C007580FF5390F075A00053B00B53C001224A
:1014C3007801E2FEC394055011780DE2FDEEB505F7
:1014D30003122A5C7801E204F222E47801F2122A70
:1014E3005C30010518E2FF80097800E2FFC374173E
:1014F3009FFFEFB4180040030215AB901505F828C1
:10150300287302154D02155102155502155902157E
:101513005D02156102156502156902156D021571EB
:1015230002157502157902157D02158102158502D2
:10153300158902158D02159102159502159902154B
:101543009D0215A10215A50215A9D2A0805AD2A108
:101553008056D2A28052D2A3804ED2A4804AD2A572
:101563008046D2A68042D2A7803ED2B4803AD2B57A
:101573008036D2B68032D2B7802ED2C1802AD2C270
:101583008026D2C38022D2C4801ED290801AD291E8
:101593008016D2C78012D292800ED293800AD2B222
:1015A3008006D2C58002D2C630010AC374179F24B5
:1015B30008F8E6805074082FF8E6FEC4135402FDC1
:1015C300EEC413131354014DFE74082FF8E6FD13F4
:1015D300131354044EFEEDC31354084EFE74082F28
:1015E300F8E6FD25E054104EFEED33333354204E20
:1015F300FE74082FF8E6FDC43354404EFEEDC433A9
:10160300333354804EF4F5807800E204F2E2D3944D
:0A161300174007E4F2200202D202A1
:01161D0022AA
:1021530012266C7818E27068300067C200782AE2B1
:10216300603908E2FF781AE26F7030782CE2FF786A
:1021730019E2B50726781DE27E007BFE242CF9EEDA
:102183003400FA121794603A783BE2FF7C007D3CFE
:102193001217E17823EEF208EFF222782BE2FF33F5
:1021A30095E0FE781AE2D39FEE6480F8748098403D
:1021B300117819E2700C7837E260077F28022A9CB5
:0221C300D20048
:0121C50022F7
:0C23B6007806E4F2087400F2087408F2E3
:1023C200783AE214601514601C14602314602A80A9
:1023D20000780B7400F2087482F222780B7400F217
:1023E2000874AAF222780B7400F20874D2F22278EE
:1023F2000B7400F20874FAF222780B7401F208747A
:0324020022F222A1
:0B2B0000E4780AF27805F27810F22267
:10161E007839E224FE60781470030216D714700332
:10162E000217062404701E780FE2FEC3940F5005B5
:10163E00E4FF021733EEC3942D50057F03021733D8
:10164E00E4FF021733780FE2FEC394055005E4FF62
:10165E00021733EEC3940D50057F01021733EEC30C
:10166E00941650057F02021733EEC3942750057F60
:10167E0003021733EEC3943050057F02021733EE88
:10168E00C3943850057F01021733E4FF02173378F5
:10169E000FE2FEC394065005E4FF021733EEC39427
:1016AE001250047F03807EEEC3941E50047F04808C
:1016BE0074EEC3942A50047F05806AEEC3943650AC
:1016CE00047F068060E4FF805C780FE2FEC394071F
:1016DE005004E4FF804FEEC3941650047F078045FC
:1016EE00EEC3942550047F03803BEEC39434500424
:1016FE007F088031E4FF802D780FE2FEC3940750FF
:10170E0004E4FF8020EEC3941650047F018016EE91
:10171E00C3942550047F02800CEEC3943450047F92
:10172E00018002E4FFE4FEEEC39404503675F0042B
:10173E00EFA42EF582E435F0F583E582241EF582C2
:10174E00E5833400F583E493FD7806E2FB08E2FAC4
:10175E0008E2F9ED1217CF0EE22401F218E234007E
:03176E00F280C442
:011771002255
:05198E00E2FFE4FBFD97
:0A1993007853EFF208EDF208EBF2D2
:10199D00E408F27856E2FDC39404506B7854E2707B
:1019AD004608E2600C7853E275F00A84D394004047
:1019BD00367853E275F00A8475F004A47C002DFF8F
:1019CD00EC35F0FE780CE22FFF18E23EFE7857F270
:1019DD0008EFF2F5828E83E493FF7806E2FB08E2CE
:1019ED00FA08E2F9EF800B7806E2FB08E2FA08E26A
:1019FD00F9E41217CF7856E204F27808E22401F2E6
:101A0D0018E23400F2808C7806E2FB08E2FA08E274
:101A1D00F9E41217CFE22401F218E23400F2E4786F
:101A2D0056F27856E2FDC39404505C7854E2703758
:101A3D0018E275F00A84E5F075F004A47C002DFF22
:101A4D00EC35F0FE780CE22FFF18E23EFE7857F2EF
:101A5D0008EFF2F5828E83E493FF7806E2FB08E24D
:101A6D00FA08E2F9EF800B7806E2FB08E2FA08E2E9
:101A7D00F9E41217CF7856E204F27808E22401F265
:071A8D0018E23400F2809B17
:011A9400222F
:10255100781A12198E12161E781912198E7806E23F
:10256100FB08E2FA08E2F9E41217CFE22401F218BB
:10257100E23400F218E2FB08E2FA08E2F9E4121789
:0B258100CFE22401F218E23400F22245
:10223700781BE2FF7B01E4FD121993E4FFEFC394DF
:10224700045020EF90002293FE7806E2FB08E2FAA2
:1022570008E2F9EE1217CF0FE22401F218E2340078
:10226700F280DA781C12198E7806E2FB08E2FA0887
:10227700E2F9E41217CFE22401F218E23400F2186F
:10228700E2FB08E2FA08E2F9E41217CFE22401F2CE
:0522970018E23400F222
:01229C00221F
:101C5C00781DE214B40700506E901C7375F003A449
:101C6C00C58325F0C58373021C88021C93021C9E3D
:101C7C00021CA9021CB4021CBF021CCA784F740BB4
:101C8C00F2087487F28040784F740BF208749FF25C
:101C9C008035784F740BF20874B7F2802A784F7441
:101CAC000BF20874CFF2801F784F740BF20874E7B4
:101CBC00F28014784F740BF20874FFF28009784F9D
:101CCC00740CF2087417F2E4FFEFC39418503478D4
:101CDC004FE2FC08E2F5828C83E493FE7806E2FB8B
:101CEC0008E2FA08E2F9EE1217CF0F7850E224015D
:101CFC00F218E23400F27808E22401F218E234001F
:031D0C00F280C69C
:011D0F0022B1
:10113A007847E27850F27816E2FF7850E22FF2E22E
:10114A00FFD3648094E350030211E3E418F2784F6A
:10115A00E2C3940450207806E2FB08E2FA08E2F9B6
:10116A00E41217CF784FE204F27808E22401F21869
:10117A00E23400F280D8E4784FF2784FE2FEC3946A
:10118A00055026EE90007493FE7806E2FB08E2FA18
:10119A0008E2F9EE1217CF784FE204F27808E22457
:1011AA0001F218E23400F280D17806E2FB08E2FA92
:1011BA0008E2F9E41217CFE22401F218E23400F24D
:1011CA0018E2FB08E2FA08E2F9E41217CFE2240176
:1011DA00F218E23400F20212E9D3EF6480948940F3
:1011EA005CE4784FF2784FE2FFC39405507B08E243
:1011FA00FE75F00A121772FD3395E08D82F583743D
:10120A0005121848E5822FF582E43583F583E582D5
:10121A002442F582E5833400F583E493FF7806E2FD
:10122A00FB08E2FA08E2F9EF1217CF784FE204F26C
:10123A007808E22401F218E23400F280A8E4784F38
:10124A00F2784FE2C3940550207806E2FB08E2FAEE
:10125A0008E2F9E41217CF784FE204F27808E224A0
:10126A0001F218E23400F280D87806E2FB08E2FACA
:10127A0008E2F9E41217CFE22401F218E23400F28C
:10128A00E4784FF2784FE2FFC39405505208E2FE29
:10129A0075F00A121772AEF0EEFD3395E08D82F505
:1012AA00837405121848E5822FF582E43583F583A5
:1012BA00E5822442F582E5833400F583E493FF78DE
:1012CA0006E2FB08E2FA08E2F9EF1217CF784FE2DA
:1012DA0004F27808E22401F218E23400F280A578D8
:1012EA0006E2FB08E2FA08E2F9E41217CFE2240167
:1012FA00F218E23400F218E2FB08E2FA08E2F9E432
:10130A001217CFE22401F218E23400F2E4784FF225
:10131A00784FE2FFC394095026EF90007993FF7843
:10132A0006E2FB08E2FA08E2F9EF1217CF784FE279
:0F133A0004F27808E22401F218E23400F280D1C4
:011349002281
:10270400781AE2FFC394185025783CE26406701EE0
:10271400EF781A30E009E2C313900E47938008E281
:0F272400C313900E4793C4540FFF780DEFF222AA
:102760001223B61227047810E214600D14600D14C1
:10277000600D14600D2404800C022237021C5C02E0
:09278000113A02206112255122D8
:0425FF00E49308F267
:10260300ED1217AD121794FF7854E2D36480F8EFFC
:1026130064809840067853E21217CF121794FF781C
:1026230053E2C36480F8EF64809850067854E21252
:0326330017CF229C
:102986007BFE7A007909AD0778537402F208740A5F
:05299600F212260322ED
:101FDC007809E224FEB40900505D901FF475F003FB
:101FEC00A4C58325F0C5837302200F02201502209F
:101FFC001B02202102202702202D0220330220392F
:10200C0002203F7E0C7FD7802E7E0C7FEF80287EB7
:10201C000D7F0780227E0D7F1F801C7E0D7F3780F9
:10202C00167E0D7F4F80107E0D7F67800A7E0D7FA0
:10203C007F80047E0D7FFFE4FDEDC3941850158F57
:10204C00828E83E493FC74082DF8A6040D0FBF0058
:04205C00010E80E50C
:01206000225D
:101A95001223B6780EE2FFC3940F5004C204800CE3
:101AA500EFC3942D5004D2048002C204781FE27063
:101AB50076784FF2784FE2C3940950207806E2FB1E
:101AC50008E2FA08E2F9E41217CF784FE204F27857
:101AD50008E22401F218E23400F280D8E4784FF2EB
:101AE500784FE2FFC394045026EF90002A93FF78C5
:101AF50006E2FB08E2FA08E2F9EF1217CF784FE2A7
:101B050004F27808E22401F218E23400F280D17878
:101B150018E2FF781FE2FE700A300403EE60047DD0
:101B250001806C7D008068781AE2FF781FE2FEB4C0
:101B3500020B300404640260047D0180027D00E430
:101B4500FB121993E4784FF2784FE2FFC3940450E7
:101B550026EF90002A93FF7806E2FB08E2FA08E2F6
:101B6500F9EF1217CF784FE204F27808E22401F278
:101B750018E23400F280D17819E2FF781FE2FEB452
:101B8500010B300404640160047D0180027D00E4E2
:041B9500FB12199393
:011B99002229
:101885001223B6780EE2FFC3940F5004C204800CF5
:10189500EFC3942D5004D2048002C204781FE26481
:1018A50006600302192B7806E2FB08E2FA08E2F962
:1018B500E41217CFE22401F218E23400F218E2FB39
:1018C50008E2FA08E2F9E41217CFE22401F218E27D
:1018D5003400F2E4FBFD7F141219937806E2FB084D
:1018E500E2FA08E2F9E41217CFE22401F218E23431
:1018F50000F2781EE2FF08E2FEB4060B3004046431
:101905000660047D0180027D00E4FB1219937806D0
:10191500E2FB08E2FA08E2F9E41217CFE22401F249
:1019250018E23400F222781BE2FF781FE2FEB403CE
:101935000B300404640360047D0180027D007B019B
:10194500121993E4FFEFC394045020EF9000229303
:10195500FE7806E2FB08E2FA08E2F9EE1217CF0F6D
:10196500E22401F218E23400F280DA781CE2FF7812
:101975001FE2FEB4040B300404640460047D01809E
:08198500027D00E4FB1219933E
:01198D002237
:100884001223B67834E2FF704C782AE2785160097A
:10089400740DF20874AFF28007740DF20874C7F295
:1008A400E4784FF2784FE2FEC394184003020B86BB
:1008B4007851E2FC08E2F5828C83E493FD74082EFF
:1008C400F8A605784FE204F27852E22401F218E225
:1008D4003400F280CFEF6401600A7834E26402608D
:1008E4000302096E780EE2FFC3940F5004C2048021
:1008F4000CEFC3942D5004D2048002C204782BE27E
:10090400FF7834E2FEB4010B300404640160047D1A
:100914000180027D00E4FB121993E4784FF2784FD2
:10092400E2FFC394045026EF90002A93FF7806E276
:10093400FB08E2FA08E2F9EF1217CF784FE204F26B
:100944007808E22401F218E23400F280D1782CE233
:10095400FF7834E2FEB4020B300404640260047DC8
:100964000180027D00E4FB021993780EE2FFC39438
:100974001B5004C204800CEFC394215004D20480A1
:1009840002C2047834E224FDB40700506E90099F3B
:1009940075F003A4C58325F0C583730209B4020965
:1009A400BF0209CA0209D50209E00209EB0209F6ED
:1009B4007851740CF208742FF280407851740CF260
:1009C400087447F280357851740CF208745FF28031
:1009D4002A7851740CF2087477F2801F7851740CE1
:1009E400F208748FF280147851740CF20874A7F230
:1009F40080097851740CF20874BFF2E4784FF278ED
:100A04004FE2FFC394184003020B86E408F2EF128E
:100A140018590A44010A44020A71040A71050A9E1B
:100A2400070A9E080ACB0A0ACB0B0AEE0D0AEE0E41
:100A34000B11100B11110B34130B341400000B5851
:100A44007834E2FF64036005782DE2704AEF6403B2
:100A54006003020B58782DE2FF6003300439EF6025
:100A640003020B58200403020B58020B537834E2A0
:100A7400FF64046005782EE2701DEF6404600302D5
:100A84000B58782EE2FF600330040CEF6003020B76
:100A940058200403020B58020B537834E2FF640518
:100AA4006005782FE2701DEF64056003020B58782F
:100AB4002FE2FF600330040CEF6003020B582004A4
:100AC40003020B58020B537834E2FF640660057886
:100AD40030E27014EF6406707B7830E2FF6003301C
:100AE4000406EF706F30046C80657834E2FF6407AD
:100AF40060057831E27014EF640770587831E2FFD2
:100B04006003300406EF704C30044980427834E2CC
:100B1400FF640860057832E27014EF640870357879
:100B240032E2FF6003300406EF7029300426801F90
:100B34007834E2FF6409600418E27013EFB4091416
:100B44007833E2FF6003300406EF70083004057860
:100B5400507401F27851E2FE08E2F5828E83E49348
:100B6400FF7850E2FEEF4EFF18E22408F8A607785B
:100B74004FE204F27852E22401F218E23400F20265
:020B84000A0362
:010B8600224C
:1028E7007BFE7A00793AAD0790264CE4937853F251
:0728F70090265E1225FF226E
:072B14001223B61225512225
:1028FE007BFE7A007938AD0790264AE4937853F23E
:07290E0090265C1225FF2258
:101E38007806E4F2087400F2087408F2E4FFEFC3CD
:101E480094105020EF900DDF93FE7806E2FB08E235
:101E5800FA08E2F9EE1217CF0FE22401F218E23481
:101E680000F280DA7806E2FB08E2FA08E2F9E41206
:101E780017CFE22401F218E23400F2E4FFEFC39432
:101E88000550387838E275F005A42FF582E435F06E
:101E9800F583E5822442F582E5833400F583E493F3
:101EA800FE7806E2FB08E2FA08E2F9EE1217CF0F15
:0B1EB800E22401F218E23400F280C2C4
:011EC30022FC
:102915007BFE7A007939AD0790264BE4937853F224
:0729250090265D1225FF2240
:072B1B001223B6122551221E
:102817007BFE7A00793CAD0790264EE4937853F21D
:102827009026601225FF783CE2780DF212270422E9
:101EC4007806E4F2087400F2087408F2E4FFEFC341
:101ED40094105020EF900DEF93FE7806E2FB08E299
:101EE400FA08E2F9EE1217CF0FE22401F218E234F5
:101EF40000F280DA7806E2FB08E2FA08E2F9E4127A
:101F040017CFE22401F218E23400F2E4FFEFC394A5
:101F1400055038783CE275F005A42FF582E435F0DD
:101F2400F583E5822442F582E5833400F583E49366
:101F3400FE7806E2FB08E2FA08E2F9EE1217CF0F88
:0B1F4400E22401F218E23400F280C237
:011F4F00226F
:10292C007BFE7A007937AD07902649E4937853F211
:07293C0090265B1225FF222B
:102733007837E260067E0D7FAF80047E0D7FC7E4AD
:10274300FDEDC3941850158F828E83E493FC7408B7
:0C2753002DF8A6040D0FBF00010E80E55C
:01275F002257
:102943007BFE7A007947AD07902659E4937853F2DA
:0729530090266B1225FF2204
:102A6C007806E4F2087400F2087408F212113A22A3
:102450007810E275F003A42453F582E4340EF5837A
:10246000E493FF7805E2D39F40297810E204F2E478
:102470007805F27810E2D394074002E4F27810E293
:10248000B40410E430030280057810F274FF78037E
:04249000F208F2223A
:0E2AD9007838E2B40104E47805F212245022A9
:0E2AE700C37803E264809480500312245022CE
:102061007803E2FE08E2FF24E87850F2EE34FF182C
:10207100F27802E22418FDE433FCD3EF9DEC648096
:10208100F8EE648098400E74FF7803F208F2E47869
:1020910010F27805F2E4FFEFFD7850E22DFD18E231
:1020A1003400FCC36480948040257802E2FBED9B00
:1020B1007480F86C985018784F08E22F2459F582F3
:1020C100E43400F583E0FE74082FF8A60680067458
:0A20D100082FF8E4F60FEFB418BD75
:0120DB0022E2
:10286D007802E2C394FE5010E2FE04F274592EF584
:09287D0082E43400F583EFF0223F
:0421C6007850EFF26C
:1021CA00E47802F27851F27850E214FF08E2C39FF1
:1021DA00505A121794FDC394A0400674C02DFD8076
:1021EA000EEDC39420400674E02DFD80027D1FE4AD
:1021FA00FC75F005EDA42CF582E435F0F583E58253
:10220A00244AF582E5833401F583E493FF64A560EB
:10221A000312286D0CECB405D8E4FF12286D78512E
:0C222A00E204F2740129F9E43AFA809B06
:012236002285
:01000A0022D3
:1029D900438E805389F0758A66758CFDC28DD28CC1
:0329E900D2A9224E
:092B0B001229D912000AD2AF22EE
:03000B00022405C7
:10240500C0E0C0F0C083C082C0D075D000C000C09D
:1024150001C002C003C004C005C006C0071214C332
:102425007811E204F2E2D394244005E4F2121B9AF7
:10243500D007D006D005D004D003D002D001D000FB
:0B244500D0D0D082D083D0F0D0E032A5
:03001B00022B3085
:012B30003272
:072B22004392C04391C02261
:1027D500EF44E8F5BC00000000E5BC30E4FB53BC69
:1027E500EFAFBDEF75F004A4FFAEF0ADBEEF4DFF4A
:0127F50022C1
:1029C500EF44E8F5BC00000000E5BC30E4FB53BC77
:0429D500EFAFBD2281
:1028B700EF7806C333CE33CED8F9FF7C027D7D1285
:0828C70017F3C3744C9FFF22BC
:1027F6007F061227D57812EEF208EFF21228B77884
:1028060016EFF27F071229C5EF131313541F08F2B0
:01281600229F
:1027890000000001010100FF3B3B171F0C0763FF1D
:102799000000001F003B005A0078009700B500D4E4
:0827A90000F301110130014EA3
:10229D00781CE2FFD3940240047E0080027E017818
:1022AD001EE2240CC39EFDEE75F00CA42F24FEF946
:1022BD00EDFF781BE22FFFE433FEED1313543F7C4B
:1022CD00002FFBEC3EFAE975F01FA4FFAEF07D0C7C
:1022DD001217F3EF2BFFEE3ACF24FFCF34FFFE7C26
:1022ED00007D071217F3AF05781DEFF27003740729
:0122FD00F2EE
:0122FE0022BD
:1027B100781CE2FFB40211781EE2540360047E1D0E
:1027C10080027E1CAF06800BEFD3940740010FEF10
:0327D100441EFFA4
:0127D40022E2
:0F2A7C00EF7F08A2E09295D2CDC2CDC313DFF455
:012A8B002228
:0F2A8C007F08C313A29592E7D2CDC2CDDFF4FF2E
:012A9B002218
:1029EC00C2C0C2CDD2C0122A7CAF05122A7CD2CD75
:0329FC00C2C02234
:10299B00C2C0C2CDD2C0EF4401FF122A7C122A8CD6
:0429AB00D2CDC2C007
:0129AF002205
:0F2ABB003004047D108002E4FD7F8E1229EC228E
:1026D300E2FE25E04480FFEE7C007BFE2418F9EC4B
:0726E3003400FA121794FD08
:1026EA007851EFF2AE05C204122ABBAF061229FFD7
:0A26FA00AD077851E2FF1229EC222F
:102494007F8012299B784FEFF230E71A781B740182
:1024A400F208F2781E7411F2122886E47818F20801
:1024B400F208F21229B012266C781DE2784FF2125B
:0F24C400229D781DE2FF784FE26F600312288699
:0124D30022E6
:1029B000E47850F278501226D37850E204F2E2D351
:0429C000940240F04D
:0129C40022F0
:1028860012229D78507403F278501226D37850E2C3
:0828960004F2E2D3940640F0C5
:01289E002217
:10266C00C2C0C2CDD2C07FBF122A7CE47850F21215
:10267C002A8C122ACA7850E27C007BFE2418F9ECD2
:10268C003400FAEF1217CFE204F2E2D3940640DFE3
:04269C00D2CDC2C019
:0126A0002217
:041DAA00784FEFF28D
:101DAE00781FE2FFFD7C002418F9EC3400FA78501D
:101DBE0074FEF208EAF208E9F27BFF74912DF9EC59
:101DCE003427FA121794FEEF2489F9EC3427FA120D
:101DDE001794FD781FE2B403051227B1AE07784FB2
:101DEE00E2FF08E2FB08E2FA08E2F9EF1217AD781B
:101DFE0050E2FB08E2FA08E2F9121794FFD3EE6400
:101E0E0080F8EF6480984004ED1217CF7850E2FB13
:101E1E0008E2FA08E2F9121794FFC3ED6480F8EFB6
:091E2E006480985004EE1217CFF5
:011E37002288
:1026A100781FE2601424FE600E14600B146008248D
:1026B100FE6010240570158006781F7403F22278DD
:1026C1001F8005781FE214F2E214F222781F7402CF
:0226D100F222F3
:10258C00781CE2FF25E02497F582E43427F58318C4
:10259C00E2FD7401932DFDE4933400FC781EE254AB
:1025AC0003700CEFD3940240067E007F0180047E02
:0A25BC00007F00ED2FFFEC3EFE2231
:0F2ACA00EFC4540F75F00AA4FEEF540F2EFF2235
:1029FF00EF75F00A84C454F0FEEF75F00A84E5F029
:032A0F002EFF2275
:10253100812700812500822300008126008128FA5D
:0A25410081290082200000812200A1
:101B9A00E4FF20B1010F20B304EF4402FFEF602AF3
:101BAA007822E2FEB5071D18E22401F218E2340099
:101BBA00F208E2647D700218E27035EEC454F078DF
:101BCA0029F2802C7822EFF280267820E2FE08E2C1
:101BDA00FFD39419EE64809480400FEF947DEE64F5
:101BEA00809480500508E27829F2E47820F208F21D
:101BFA007828E26005E214F28028782874FAF2184C
:101C0A00E26003E214F27825E26003E214F2782437
:101C1A00E2700218E2600B7824E224FFF218E23440
:101C2A00FFF27826E26005E214F2800E7824E27070
:101C3A000218E26005782674FAF27826E2540ED386
:101C4A009408400B7828E2D3947D4005C2CC22D276
:011C5A00CCBD
:011C5B002266
:102A9C007826EFF2782874FAF2E47823F208F2221E
:062B29007829E2FFE4F24E
:012B2F002283
:10295A0000000000000000000000FF01173B010119
:06296A000101010101FF63
:012B31002281
:012B32002280
:102A12007834E2C3648094894003E4F2227834E299
:032A220004F22299
:041F5000784FEFF2E5
:101F54007834E2FFFD3395E0FC742A2DF974003CDB
:101F6400FA785074FEF208EAF208E9F27BFF74652D
:101F74002DF974293CFA121794FEEFFD3395E0FC19
:101F8400745A2DF974293CFA121794FF784FE2FD24
:101F940008E2FB08E2FA08E2F9ED1217AD7850E224
:101FA400FB08E2FA08E2F9121794FDD3EE6480F814
:101FB400ED6480984004EF1217CF7850E2FB08E2FA
:101FC400FA08E2F9121794FDC3EF6480F8ED648017
:071FD400985004EE1217CF34
:011FDB0022E3
:10001E000000000000080800001C1C00003636001E
:10002E00002436000024240000240000003030009C
:10003E00000606007F7F417F7F00007F7F000F4F0D
:10004E004979794149497F7F7878087F7F79794965
:10005E004F0F7F7F494F0F4040407F7F7F7F497F0B
:10006E007F7879497F7F3040454830705070003E30
:10007E007F6341417F41417F00007F004F494979B5
:10008E004949497F7808087F7949494F7F49494F47
:10009E004040407F7F49497F7949497F3E45413EF7
:1000AE0000217F0123454931425169460C14245FDA
:1000BE007251514E1E294906404F5060367F4936C7
:1000CE0030494A3C7E41413F00407F000F4949394B
:1000DE004949493E7C04041F7849490F7F49490725
:1000EE006040403F7E49493F7849493F7F63637F87
:1000FE0000607F006F6B6B7B6B6B6B7F7878087F1C
:10010E007B7B4B4F7F7F494F40407F7F7F6B6B7F69
:10011E007969497F007F417F00007F00004F497958
:10012E000049497F0078087F0079494F007F494F89
:10013E000040407F007F497F0079497F000000002A
:10014E00A57DA5A5A5A5700070A5A5147F147F1487
:10015E00122A7F2A24626408132336495522055039
:10016E0060A5A5A51C2241A5A541221CA5A5140884
:10017E003E081408083E08080506A5A5A5040404B3
:10018E0004A501A5A5A5A502040810203E41413EE7
:10019E00A500217F01A521434539A522414936A558
:1001AE000C14247FA57251514EA53E494926A540F7
:1001BE00474870A536494936A53249493EA512A58C
:1001CE00A5A5A50112A5A5A508142241A5141414D0
:1001DE00141441221408A520404548303E415D5577
:1001EE003C1F2444241F7F494949363E4141412248
:1001FE007F4141221C7F494949417F484848403E42
:10020E004149492F7F0808087F417F41A5A502017A
:10021E00417E407F081422417F010101A57F2018F5
:10022E00207F7F1008047F3E4141413E7F48484871
:10023E00303E4145423D7F484C4A3132494949267C
:10024E0040407F40407E0101017E700C030C707EA9
:10025E00010E017E6314081463700807087043458D
:10026E004951617F4141A5A50C123F120441417FC6
:10027E00A5A5102040201001010101014020A5A5D7
:10028E00A5021515150F7F0911110E0E1111110270
:10029E000E1111097F0E1515150C083F4840201838
:1002AE002525253E7F0810100F115F01A5A502011F
:1002BE00115EA57F040A11A5417F01A5A51F100C93
:1002CE00100F1F08100FA50E1111110E3F24222220
:1002DE001C1C2222243F1F081008A5081515150204
:1002EE00107E1101021E0101021F18060106181EC2
:1002FE000106011E110A040A11180505051E111327
:10030E00151911083641A5A57FA5A5A5A541360845
:10031E00A5A508100810A5A5A5A5A5A5021E3F1EFA
:10032E00023049294936184525451E0201417E40B5
:10033E002A1C771C2A3F202020607F7F7F7F7F7FB3
:10034E007F7F7F7F3F692969217F7F7F7F7F3E4946
:10035E0049412208142A14227F7F7F7F7F1E29277E
:10036E00211E7F7F7F7F7F413F41A5A500304848FA
:10037E003009097D0909417F41A5A5115F01A5A598
:10038E001F101058A57F7F7F7F7F7F7F7F7F7F7FAE
:10039E007F7F7F7F0E5515550C7F7F7F7F7F0E15DC
:1003AE0015110A22142A14087F7F7F7F7F7F7F7F9B
:1003BE007F7F7F7F7F7F7F511F51A5A53F444444A0
:1003CE003F7F494949467F494949367F4040406011
:1003DE00033E427E037F4949494177087F087741B2
:1003EE00494949367F0408107F3F0264083F7F0861
:1003FE00142241011E20407F7F2018207F7F080895
:10040E00087F3E4141413E7F4040407F7F48484803
:10041E00303E4141412240407F4040700909097EF3
:10042E003C42FF423C63140814637F01017F01705C
:10043E000808087F7F017F017F7E027E027F407F5A
:10044E000909067F0906007F7F0911110E22414915
:10045E00493E7F083E413E314A4C487F02151515F4
:10046E000F1E292949061F15150AA51F101018A5BC
:10047E00030E121E030E1515150C1B041F041B1163
:10048E0015150AA51F0204081F1F4224481F1F042A
:10049E000A11A50708101FA51F0804081F1F040432
:1004AE001FA50E1111110E1F10101FA51F141212D1
:1004BE000C0E1111110210101F1010180505051E3B
:1004CE000C129F120C110A040A111F01011F0118B0
:1004DE0004041FA51F011F011F1E021E021F101F55
:1004EE000505021F0502001F1F050502A50A1115AD
:0C04FE00150E1F040E110E081516141F19
:0D000E00E4F5C7F5C5F5C675C380F5C4223D
:1028CF0075C78475C5018FC4EEF5C375C65A75C635
:0728DF00A500AFC212000EBC
:0128E60022CF
:1028530075C78475C5028FC4EEF5C3AF058FC27506
:0A286300C65A75C6A50012000E2229
:1029700075C78475C5038FC4EEF5C375C65A75C691
:06298000A50012000E226A
:10263600FF00020000010500071E01010101010063
:102646000000FF0001000000000000000000000084
:10265600000000F7FF01050404010601173B010114
:0626660001010101010960
:03254B008135597E
:1022FF00D204E47850F27850E2FFC39409501D7E67
:10230F00007BFE743D2FF9EE3400FA121794F4603F
:10231F0004C20480077850E204F280DA30042EE41D
:10232F007850F27850E2FF7C007BFF2436F9EC34D2
:10233F0026FA121794FEEF1B2436F9EC3400FAEE4E
:0D234F001217CFE204F2E2B412D91224D426
:01235C00225E
:1025C600E4784FF2784FE2FDC3941250287835E252
:1025D60025E0FE7C00E42DFFEC3EFE1228CF784F6E
:1025E600E27C007BFE2436F9EC3400FAEF1217CFBA
:0825F600E204F280CF1222FF83
:0125FE0022BA
:1024D4007835E27F0025E0FE122970E47851F27825
:1024E40051E2FDC3941250267835E225E0FE7C00CB
:1024F400E42DFFEC3EFE7BFE74362DF9EC3400FA3D
:0E250400121794FD1228537851E204F280D190
:0125120022A6
:10050A00D120CDCEC2DBCC20C3CEC4CECC2121217A
:10051A0000D0EEE6E4E5F1F2E2EE20F5F0E8F1F2E1
:10052A00EEE2EE2E00D1F2E0F0FBE920CDEEE2FBA6
:10053A00E920E3EEE42E00CAF0E5F9E5EDE8E5206E
:10054A00C3EEF1EFEEE4EDE52E00D2E0F2FCFFEDB2
:10055A00E8ED20E4E5EDFC2E00C4E5EDFC20E2F137
:10056A00E5F520E2EBFEE1EBB8EDEDFBF52E00C47C
:10057A00E5EDFC20E7E0F9E8F2EDE8EAE020CEF26A
:10058A00E5F7E5F1F2E2E02E00CCE5E6E4F3EDE092
:10059A00F0EEE4EDFBE920E6E5EDF1EAE8E920E436
:1005AA00E5EDFC2E00C4E5EDFC20ECEEF0FFEAE000
:1005BA002DEFEEE4E2EEE4EDE8EAE02E00C4E5ED2C
:1005CA00FC20F1ECE5F5E02E00C4E5EDFC20EAEEB6
:1005DA00F1ECEEEDE0E2F2E8EAE82E00CFF0E0E737
:1005EA00E4EDE8EA20C2E5F1EDFB20E820D2F0F3E1
:1005FA00E4E02E00C4E5EDFC20EFEEE1E5E4FB21AA
:10060A00212100C4E5EDFC20EFE8EEEDE5F0E8E895
:10061A002E00C4E5EDFC20EFEEE3F0E0EDE8F7EDA7
:10062A00E8EAE02E00C4E5EDFC20E7E0F9E8F2FB99
:10063A0020E4E5F2E5E92E00C4E5EDFC20D0CED1B8
:10064A00D1C8C82E00C4E5EDFC20ECEEEBEEE4E5E3
:10065A00E6E82E00C4E5EDFC20F1E5ECFCE82C20F0
:10066A00EBFEE1E2E820E820E2E5F0EDEEF1F2E867
:10067A002E00C4E5EDFC20C2EEE7E4F3F8EDEE2D22
:10068A00E4E5F1E0EDF2EDFBF520E2EEE9F1EA2E28
:10069A0000C4E5EDFC20C2EEE5EDEDEE2DE2EEE75D
:1006AA00E4F3F8EDFBF520F1E8EB2E00C4E5EDFCF0
:1006BA0020E7EDE0EDE8E92E00C4E5EDFC20F2E5E7
:1006CA00F1F2E8F0EEE2F9E8EAE02E00C4E5EDFC2A
:1006DA0020F3F7E8F2E5EBFF2E00C4E5EDFC20F08D
:1006EA00EEE6E4E5EDE8FF20C4E5E4E020CCEEF038
:1006FA00EEE7E02E00C4E5EDFC20FDEDE5F0E3E5D4
:10070A00F2E8EAE02E00C4E5EDFC20EFF0EEE3F0BB
:10071A00E0ECECE8F1F2E02E00C4E5EDFC20ECE5BB
:10072A00E4E8F6E8EDF1EAEEE3EE20F0E0E1EEF2DD
:10073A00EDE8EAE02E00C4E5EDFC20F1E8F1F2E58F
:10074A00ECEDEEE3EE20E0E4ECE8EDE8F1F2F0E0C7
:10075A00F2EEF0E02E00C4E5EDFC20C2EEE5EDED90
:10076A00EE2DCCEEF0F1EAEEE3EE20D4EBEEF2E081
:10077A002E00CCE5E6E4F3EDE0F0EEE4EDFBE92053
:10078A00E4E5EDFC20EFE8E2E02E00C4E5EDFC2014
:10079A00F1F2F0EEE8F2E5EBFF2E00C4E5EDFC2005
:1007AA00F2E0EDEAE8F1F2E02E00C4E5EDFC20E02B
:1007BA00E2F2EEECEEE1E8EBE8F1F2E02E00C4E55D
:1007CA00EDFC20ECE0F2E5F0E82E00010111050A4B
:1007DA00010714051B010E12052F01131305410110
:1007EA00190F0554020E16056302171A0579030834
:1007FA001C059303131805AF04010C05C7040C1359
:10080A0005D305011805E605090F05FE05130F06B0
:10081A000D051C13061C060113062F060C0D0642B5
:10082A00061B0F064F07081E065E08021F067C08F5
:10083A000C1B069B09010D06B609091306C30A0516
:10084A000E06D60B121B06E40C161106FF610013E6
:10085A00071036071D0723770520074077071C076F
:10086A0060180519077C280710079529070F07A59F
:0A087A007A071407B47B070D07C8C6
:02254E00C103C7
:10235D00781DE27850F27F057848E4F208DFFC7FC3
:10236D0005781BE27850F27850E2D3648094874070
:10237D0006E224F9F280F01227B1AE07E4FFEFC3B5
:10238D0094055024EEFD7850E2F9FB3395E0FAD335
:10239D00EB9D7480F86A98500F74482FF8E9F20F8E
:0823AD007850E22407F280D60B
:0123B5002205
:10283700784CE2FF700C781BE2FE784BE2B5060A93
:0C284700D322781BE2B50702D322C32283
:102A250074482FF8E2FF781BE2FEEFB50603D3806A
:032A350001C322B8
:10134A00C203E47802F212235DE4784FF2784FE2A6
:10135A00FFC3942340030214C23003030214C2EFF2
:10136A0075F005A424D5F582E43407F583E493FFE8
:10137A0054F0FEC4540F1424FB503F700302140FA0
:10138A00147003021449240760030214B4784FE26C
:10139A0075F005A424D6F582E43407F583E493FEB8
:1013AA00781BE2FDEE6D60030214BAEF540FFF08DA
:1013BA00E26F60030214BA021480784FE2FF75F0FC
:1013CA0005A424D5F582E43407F583E493FE540F8B
:1013DA00FD781CE26D60030214BAEF75F005A424CF
:1013EA00D6F582E43407F583E493FF08E26F6003DD
:1013FA000214BAEE5470C4540F14FF122A25400383
:10140A000214BA807112258CAC06AD07784FE2FB44
:10141A0075F005A424D5F582E43407F583E49354E2
:10142A0001FEEB75F005A424D6F582E43407F583B2
:10143A00E493FBEB6D7002EC6E7075D203803B781F
:10144A004FE2FF75F005A424D5F582E43407F5834D
:10145A00E493540FFE781CE26E7055EF75F005A404
:10146A0024D6F582E43407F583E493FF08E26F702B
:10147A003F122837503AD203784FE2FE75F005A49E
:10148A0024D7F582E43407F583E493FFEE75F0057B
:10149A00A424D8F582E43407F583E493FC74019319
:1014AA00AA04F97BFF1221C68006C203E47802F27D
:0814BA00784FE204F20213571F
:0114C2002207
:101D2A00020E68E493A3F8E493A34003F68001F259
:101D3A0008DFF48029E493A3F85407240CC8C333BA
:101D4A00C4540F4420C8834004F456800146F6DF89
:101D5A00E4800B0102040810204080902513E47EE1
:101D6A00019360BCA3FF543F30E509541FFEE4937E
:101D7A00A360010ECF54C025E060A840B8E493A345
:101D8A00FAE493A3F8E493A3C8C582C8CAC583CA70
:101D9A00F0A3C8C582C8CAC583CADFE9DEE780BE28
:01255000008A
:10177200C2D530F707B2D563F0FF05F030E70CB2FF
:10178200D5F4048463F0FF05F080018430D502F4BF
:0217920004222F
:10179400BB010689828A83E0225002E722BBFE0253
:0917A400E32289828A83E4932286
:1017AD00BB010989828A83F8E028F022500327F7CC
:1017BD0022BBFE05F8E328F3228A838982F8E4939D
:0217CD002822D0
:1017CF00BB010689828A83F0225002F722BBFE01F9
:0217DF00F322F3
:1017E100EF8DF0A4A8F0CF8CF0A428CE8DF0A42E1C
:0217F100FE22D6
:1017F300BC000BBE0029EF8DF084FFADF022E4CCDA
:10180300F875F008EF2FFFEE33FEEC33FCEE9DECA2
:10181300984005FCEE9DFE0FD5F0E9E4CEFD22EDE8
:10182300F8F5F0EE8420D21CFEADF075F008EF2F32
:10183300FFED33FD4007985006D5F0F222C398FD23
:051843000FD5F0EA22C0
:10184800F5F0C582A4C582C5F0C583A42583F583B8
:01185800226D
:10185900D083D082F8E4937012740193700DA3A31E
:1018690093F8740193F5828883E473740293686032
:06187900EFA3A3A380DF32
:06187F008A838982E473F4
:00000001FF
