:03000000021E3AA3
:101E3A0078FFE4F6D8FD9000007F007E07E4F0A367
:0A1E4A00DFFCDEFA758120021E8F16
:102CAD0012287312210E122E3E122E471226EF12EB
:082CBD002E67782474FFF22257
:100F1B0078527401F2122CAD7FFA122D957F1412B8
:100F2B002DE9782B7402F23003FDC2037813E275BE
:100F3B00F00A84E5F07027780DE2FF600964026027
:100F4B001DEF64036018782BE270067402F2122B0B
:100F5B00231222957815E264046003121716122EE1
:100F6B004E7851EFF26012C3941074809480500449
:100F7B007F1480027F28122DE97851E2FF24FE6056
:100F8B001A24F2700302103F24F070030210E824BD
:100F9B001F600302113178527401F2EF6402700585
:100FAB00785274FFF2780DE2B40B0040030211315A
:100FBB00900FC2F8282873020FE3020FE5020FEF20
:100FCB00020FEF020FF902100302100D02101702AD
:100FDB00102102102B02103580467852E2FF122DA1
:100FEB00340211317852E2FF121ED40211317852C1
:100FFB00E2FF121FF90211317852E2FF122C60024C
:10100B0011317852E2FF122C120211317852E2FFA9
:10101B00122C2C0211317852E2FF122C46021131A4
:10102B007852E2FF122ADF0211317852E2FF122CC2
:10103B007A021131780DE2B40B00400302113190AA
:10104B001051F82828730210720210750210A802B2
:10105B0010B20210C30210E40210E40210E40210FA
:10106B00E40210E40210E4021118780AE2FF24FDF6
:10107B00601A14601D24F9501F24096003021131FA
:10108B0078247402F2780DEFF20211317824740691
:10109B008003E47838F28000780AE280787824E2E2
:1010AB007011122BF7807A7824E264037005122BEF
:1010BB0065806E12294C806E7838E2FF3395E0FE26
:1010CB00EF4E7005782EE26006EF64094E70051244
:1010DB002E688005122BBF804D7F018046780DE274
:1010EB00B40B0050419010F7F82828730211180226
:1010FB00111F02112C02112C0211250211280211B1
:10110B0028021128021128021128021128780D74C7
:10111B0001F28012E4780DF2800C122E677F0280B0
:10112B0002E4FF122A68780DE2B40B00505D9011B7
:10113B0040F828287302116102116602116B02112B
:10114B007002117502117A02117F0211840211894A
:10115B0002118E0211931229DF8030122085802B11
:10116B001219EE8026121B188021120528801C12E2
:10117B00297E8017122E558012122195800D122E6A
:10118B005B80081222158003122DF97814E204F209
:10119B007813E204F23004117815E26404700A78D3
:1011AB0013E254017003121F677814E2D3943B745B
:1011BB008094804002E4F27813E2D3943B748094E1
:1011CB00805003020F32E4F27805E204F27815E264
:1011DB0075F003A42407F582E4340FF583E493FE42
:0C11EB00740193AA06F9121710020F32CB
:042E61007F02DFFE0F
:012E6500224A
:0A2E3300EF60077E0ADEFE1F80F646
:012E3D002272
:102D9500EF600E0000007E0B7DBEDDFEDEFC1F80B9
:012DA500EF3E
:012DA600220A
:100C2A0000007F7F40407F7F007F7F08087F7F0032
:100C3A00031F227E7F03000000007F7F49497F3621
:100C4A000040407F7F4040007F7F48487830000066
:100C5A0000003E7F41416322007F7F484878300090
:100C6A00031F227E7F0300000000707808087F7F40
:100C7A000040407F7F4040007F7F49497F36000027
:100C8A0000007F7F40407F7F0040407F7F404000E0
:100C9A007F7F08087F7F000000003E7F414163227A
:100CAA000060731B0F7C70007F7F49494F4600002C
:100CBA0000007F7F49497F36003E7F414163220021
:100CCA007F7F081463630000007C7C40407C7C00CA
:100CDA007C7C10107C7C000C3C48787C0C0000006A
:100CEA00007C7C54547C280040407C7C4040007C42
:100CFA007C5050702000000000387C44446C28006E
:100D0A007C7C50507020000C3C48787C0C00000021
:100D1A0000607010107C7C0040407C7C4040007C6D
:100D2A007C54547C28000000007C7C40407C7C0081
:100D3A0040407C7C4040007C7C10107C7C000000A1
:100D4A0000387C44446C280064741C187060007C71
:100D5A007C54545C48000000007C7C54547C28007D
:100D6A00387C44446C28007C7C10386C44000000B9
:100D7A000000607F7F60006F6F007F3F101F103F91
:100D8A007F007F7F49490000007F7F63361C001F78
:100D9A003F6C6C3F1F00607F7F60007F7F49490086
:100DAA00003F7F4C7F3F007F7F0303003F7F4C7FE4
:100DBA003F007F7F6C6C3700000000003E414171AC
:100DCA0049493E000000063A433A06000000000086
:100DDA00007F7F6868003E7F417F3E007F3F180C9E
:100DEA007E7F00607F7F6000007F7F41633E1C0042
:100DFA006F6F00327B496F26007F7F446C3800009A
:100E0A00007F3F101F103F7F006F6F007F7F6336A8
:100E1A001C007F7F6C6C3800007F7F497F36007F23
:100E2A007F6C6C37006F6F003E7F414D2E000000D3
:100E3A0000003E41417149493E00000000000000A7
:100E4A0011117D11110000000000000000007F7FD9
:100E5A00417F7F007F7F381C7F7F000000000000F9
:100E6A00000000007F7F417F7F007F7F6C6C007FE6
:100E7A007F6C6C0000000000607F7F6000730B7E57
:100E8A007C007F7F4C380036007F7F49497F3600DF
:100E9A007F7F4C4E7B310036000000705070003E60
:100EAA007F6341410000000011117D111100000013
:100EBA00007F413E0032492600207F002249360049
:100ECA003E413E002345390060F0F8FC7E3F7EFC3F
:100EDA00F8F0600060F0F8FC7E3F7EFCF8F06000FD
:100EEA000000123455555555555432105555554430
:100EFA0044433333222221111100000005000E025F
:100F0A0026A50226A50226A500000300000000006F
:010F1A0000D6
:1028E500811206810D00810A028105008115008192
:0728F5000000810100C18019
:10210E00E4F5937594FF75912075922FF59575965C
:10211E00FFF5B175B2F775B30175B4FF75C92075CA
:10212E00CAFFC2C0C2CD7840E27812F2C2031225B5
:10213E00C97807E4F2087400F2087408F278537450
:10214E000EF20874D2F2E4FFEFC3941874809480F8
:10215E0050347853E2FC08E2F5828C83E493FE78E7
:10216E0007E2FB08E2FA08E2F9EE12162A0F78549B
:10217E00E22401F218E23400F27809E22401F218A6
:06218E00E23400F280C201
:012194002228
:102DB9007580FF5390F075A00053B00B53C00122EA
:10188B007801E2FEC394057480948050117812E2C3
:10189B00FDEEB50503122DB97801E204F222E478CE
:1018AB0001F2122DB930020518E2FF80097800E22F
:1018BB00FFC374179FFFEFB4180040030219779012
:1018CB0018D1F828287302191902191D02192102BF
:1018DB00192502192902192D02193102193502197C
:1018EB003902193D02194102194502194902194DD4
:1018FB0002195102195502195902195D0219610297
:10190B00196502196902196D021971021975D2A0B4
:10191B00805AD2A18056D2A28052D2A3804ED2A49A
:10192B00804AD2A58046D2A68042D2A7803ED2B4AE
:10193B00803AD2B58036D2B68032D2B7802ED2C1A1
:10194B00802AD2C28026D2C38022D2C4801ED290DB
:10195B00801AD2918016D2C78012D292800ED29367
:10196B00800AD2B28006D2C58002D2C630020AC328
:10197B0074179F2408F8E6805074082FF8E6FEC40D
:10198B00135402FDEEC413131354014DFE74082FB0
:10199B00F8E6FD13131354044EFEEDC31354084E17
:1019AB00FE74082FF8E6FD25E054104EFEED3333A0
:1019BB003354204EFE74082FF8E6FDC43354404ECA
:1019CB00FEEDC433333354804EF4F5807800E204DB
:1019DB00F2E2C39418748094804007E4F22003026F
:0219EB00D20325
:0119ED0022D7
:102A6800EF24FE60030470173003FD122DB9C2AFC6
:102A7800EF640170051227778003122873D2AFE440
:0A2A8800780DF27805F27815F222BD
:10229500122836781DE27069300068C200782EE297
:1022A500603A781FE2FF782FE26F7030781EE2FF08
:1022B5007830E2B507267822E27E007BFE2430F9ED
:1022C500EE3400FA1215C2603A783FE2FF7C007DD9
:1022D5003C12163C7828EEF208EFF222782FE2FF46
:1022E5003395E0FE781FE2D39FEE6480F874809802
:1022F5004011781EE2700C783BE260077F28022DC2
:03230500E9D2001A
:0123080022B2
:0C25BD007807E4F2087400F2087408F2D9
:1025C900783EE214601514601C14602314602A809C
:1025D90000780E7400F20874A0F222780E7400F2EA
:1025E9000874C8F222780E7400F20874F0F22278A6
:1025F9000E7401F2087418F222780E7401F208744C
:0326090040F2227A
:052BA200E4FF122BA767
:102BA7007807E2FB08E2FA08E2F9EF12162AE224B4
:082BB70001F218E23400F222E1
:10265B007853740EF20874BAF2E4FFEFC394187453
:10266B0080948050347853E2FC08E2F5828C83E44A
:10267B0093FE7807E2FB08E2FA08E2F9EE12162A5B
:10268B000F7854E22401F218E23400F27809E224C4
:09269B0001F218E23400F280C2E1
:0126A4002213
:1013D200783DE224FE700302147E1470030214D7D7
:1013E20014700302151B240470297814E2FD7C009A
:1013F200C3940F748094805005E4FF02155DC3ED21
:10140200942DEC6480948050057F0302155DE4FF07
:1014120002155D7814E2FD7C00C39405748094800B
:101422005005E4FF02155DC3ED940DEC64809480D9
:1014320050057F0102155DC3ED9416EC6480948023
:1014420050057F0202155DC3ED9427EC6480948001
:1014520050057F0302155DC3ED9430EC64809480E7
:1014620050057F0202155DC3ED9438EC64809480D0
:1014720050057F0102155DE4FF02155D7814E2FD5F
:101482007C00C39406748094805005E4FF02155DCD
:10149200C3ED9412EC6480948050057F0302155DC5
:1014A200C3ED941EEC6480948050057F0402155DA8
:1014B200C3ED942AEC6480948050057F0502155D8B
:1014C200C3ED9436EC6480948050057F0602155D6E
:1014D200E4FF02155D7814E2FD7C00C3940774807A
:1014E20094805004E4FF8073C3ED9416EC648094FE
:1014F2008050047F078064C3ED9425EC648094805F
:1015020050047F038055C3ED9434EC648094805082
:10151200047F088046E4FF80427814E2FD7C00C329
:101522009407748094805004E4FF802FC3ED9416D6
:10153200EC6480948050047F018020C3ED9425ECFC
:101542006480948050047F028011C3ED9434EC6473
:1015520080948050047F018002E4FFE4FEEEC39495
:101562000474809480503675F004EFA42EF582E462
:1015720035F0F583E582241EF582E5833400F58398
:10158200E493FD7807E2FB08E2FA08E2F9ED1216AD
:0D1592002A0EE22401F218E23400F280C0BB
:01159F002229
:04256A007859EFF2BB
:10256E00E408F2785AE2FDC3940474809480503EDD
:10257E0018E275F004A47C002DFFEC35F0FE780F08
:10258E00E22FFF18E23EFE8F82F583E493FD78077B
:10259E00E2FB08E2FA08E2F9ED12162A785AE20492
:0E25AE00F27809E22401F218E23400F280B55E
:0125BC0022FC
:10273400E4FEEEC3940374809480503675F003EF86
:10274400A42EF582E435F0F583E5822482F582E552
:10275400833400F583E493FD7807E2FB08E2FA088A
:10276400E2F9ED12162A0EE22401F218E23400F224
:0227740080C023
:012776002240
:05251500E2FFE4FBFD04
:10251A007857EFF208EDF2701FEB600F18E275F0D2
:10252A000A84D3940074809480400D7857E275F041
:10253A000A84FF12256A8009122BA2122BA7122BDA
:10254A00A7E4FF122BA77858E2700B18E275F00A7D
:10255A0084AFF002256A122BA2122BA7122BA722F4
:102A0E00781FE2FDD3941874809480500A18E294D3
:102A1E003C74809480400302265BAF05E4FBFD12FC
:0E2A2E00251A1213D2781E122515122BA22281
:1024BC007821E2D3940C74809480500A18E2942012
:1024CC0074809480400302265B7820E2FF7B01E459
:1024DC00FD12251AE4FFEFC39404748094805020FD
:1024EC00EF90002293FE7807E2FB08E2FA08E2F98B
:1024FC00EE12162A0FE22401F218E23400F280D612
:08250C007821122515122BA203
:0125140022A4
:101CB5007822E214B407005070901CCC75F003A490
:101CC500C58325F0C58373021CE1021CEC021CF7D9
:101CD500021D02021D0D021D18021D237853740CEE
:101CE500F208742AF2804B7853740CF2087442F2AD
:101CF50080407853740CF208745AF2803578537426
:101D05000CF2087472F2802A7853740CF208748A03
:101D1500F2801F7853740CF20874A2F28014785381
:101D2500740CF20874BAF280097853740EF20874D0
:101D3500BAF2E4FFEFC3941874809480503478535A
:101D4500E2FC08E2F5828C83E493FE7807E2FB0867
:101D5500E2FA08E2F9EE12162A0F7854E22401F2AB
:101D650018E23400F27809E22401F218E23400F2B4
:021D750080C22A
:011D77002249
:1011F700784BE27854F2781BE2FF7854E22FF2E260
:10120700FEFD3395E0FCD3ED9463EC64809480405D
:101217006CE418F27853E2C39404748094805020ED
:101227007807E2FB08E2FA08E2F9E412162A785393
:10123700E204F27809E22401F218E23400F280D4E1
:10124700E47853F27853E2FFC39405748094805096
:1012570026EF90007493FF7807E2FB08E2FA08E2B2
:10126700F9EF12162A7853E204F27809E22401F220
:1012770018E23400F280CD122BA2021390EEFF3356
:1012870095E0FED3EF9409EE648094804063E478A0
:1012970053F27853E2FFC3940574809480400302AD
:1012A700132808E2FE75F00A1215A0FD3395E08DAC
:1012B70082F58374051216D9E5822FF582E435830A
:1012C700F583E5822442F582E5833400F583E493D0
:1012D700FF7807E2FB08E2FA08E2F9EF12162A782C
:1012E70053E204F27809E22401F218E23400F280B2
:1012F700A1E47853F27853E2C39405748094805044
:10130700207807E2FB08E2FA08E2F9E412162A78E5
:1013170053E204F27809E22401F218E23400F28081
:10132700D4E4FF122BA7E47853F27853E2FFC39477
:101337000574809480505208E2FE75F00A1215A0D9
:10134700AEF0EEFD3395E08D82F58374051216D964
:10135700E5822FF582E43583F583E5822442F58221
:10136700E5833400F583E493FF7807E2FB08E2FAAC
:1013770008E2F9EF12162A7853E204F27809E22418
:1013870001F218E23400F280A1122BA2E47853F2A2
:101397007853E2FFC39409748094805026EF90003D
:1013A7007993FF7807E2FB08E2FA08E2F9EF1216F1
:1013B7002A7853E204F27809E22401F218E23400B1
:0B13C700F280CDE4FF122BA7022BA741
:10230900781FE2FFC394187480948050237840E2C8
:102319006406701CEF781F30E009E2C313900EEADF
:10232900938008E2C313900EEA93C4540FFF803ED2
:102339007840E26407703B781CE230E016A2E713AC
:10234900FF3395E0FE74F62FF582740E3EF583E4B3
:10235900938018781CE2A2E713FF3395E0FE74F628
:102369002FF582740E3EF583E493C4540FFF78125F
:03237900EFF2225E
:1029DF001225BD1223097815E214600F14600F142D
:1029EF00600F14600F2404700E80100224BC021CB0
:0F29FF00B50211F70227BAE47815F2122A0E2258
:10291900ED1216081215C2FF7858E2D36480F8EF59
:1029290064809840067857E212162A1215C2FF7879
:1029390057E2C36480F8EF64809850067858E21231
:03294900162A2229
:102D34007BFE7A00790AAD0778577402F208740AA8
:042D4400F202291955
:10208500780AE224FEB40900505D90209D75F003A6
:10209500A4C58325F0C583730220B80220BE0220A3
:1020A500C40220CA0220D00220D60220DC0220E28F
:1020B5000220E87E0D7F7A802E7E0D7F9280287E1D
:1020C5000D7FAA80227E0D7FC2801C7E0D7FDA8067
:1020D500167E0D7FF280107E0E7F0A800A7E0E7FAF
:1020E5002280047E0E7FA2E4FDEDC39418748094D3
:1020F5008050158F828E83E493FC74082DF8A60416
:082105000D0FBF00010E80E187
:01210D0022AF
:1019EE001225BD7813E2FF7E00C3940F748094809D
:1019FE005004C2058011C3EF942DEE648094805084
:101A0E0004D2058002C2057824E26003021A9B7894
:101A1E0053F27853E2C3940974809480502078076F
:101A2E00E2FB08E2FA08E2F9E412162A7853E2041D
:101A3E00F27809E22401F218E23400F280D4E4785C
:101A4E0053F27853E2FFC39404748094805026EFCF
:101A5E0090002A93FF7807E2FB08E2FA08E2F9EF1A
:101A6E0012162A7853E204F27809E22401F218E2FF
:101A7E003400F280CD781DE2FF7824E2FD700A304A
:101A8E000503ED60047D0180747D008070781FE297
:101A9E00FF7824E2FD6402700C300505ED640260EF
:101AAE00047D0180027D00E4FB12251AE47853F2D6
:101ABE007853E2FFC39404748094805026EF900014
:101ACE002A93FF7807E2FB08E2FA08E2F9EF121612
:101ADE002A7853E204F27809E22401F218E2340083
:101AEE00F280CD781EE2FF7824E2FD6401700C30A6
:101AFE000505ED640160047D0180027D00E4FB12AA
:0A1B0E00251AE4FF122BA7022BA7F3
:101B18001225BD7813E2FF7E00C3940F7480948071
:101B28005004C2058011C3EF942DEE648094805058
:101B380004D2058002C2057824E264067035122BAF
:101B4800A3E4FBFD7F1412251AE4FF122BA77823C8
:101B5800E2FF08E2FD6406700C300505ED640660DE
:101B6800047D0180027D00E4FB12251AE4FF122B9C
:101B7800A7806A7820E2FF7824E2FD6403700C30C5
:101B88000505ED640360047D0180027D007B011280
:101B9800251AE4FFEFC39404748094805020EF90DA
:101BA800002293FE7807E2FB08E2FA08E2F9EE1257
:101BB800162A0FE22401F218E23400F280D67821C6
:101BC800E2FF7824E2FD6404700C300505ED64043E
:101BD80060047D0180027D00E4FB12251AE4FF12F7
:051BE8002BA7022BA752
:100528001225BD7838E2FF3395E0FEEF4E70507823
:100538002EE278556009740EF2087452F28007743E
:100548000EF208746AF2E47853F27853E2FDC39429
:10055800187480948040030208AF7855E2FA08E2E4
:10056800F5828A83E493FC74082DF8A6047853E294
:1005780004F27856E22401F218E23400F280CBEF5C
:1005880064014E60117838E2FF3395E0FEEF6402B3
:100598004E600302064D7813E2FF7E00C3940F7489
:1005A8008094805004C2058011C3EF942DEE6480BE
:1005B80094805004D2058002C205782FE2FF783873
:1005C800E2FD3395E0FCED64014C700D300506ED5D
:1005D80064014C60047D0180027D00E4FB12251A51
:1005E800E47853F27853E2FFC39404748094805003
:1005F80026EF90002A93FF7807E2FB08E2FA08E268
:10060800F9EF12162A7853E204F27809E22401F28B
:1006180018E23400F280CD7830E2FF7838E2FD331A
:1006280095E0FCED64024C700D300506ED64024C5B
:1006380060047D0180027D00E4FB12251AE4FF12AC
:100648002BA7022BA77813E2FF7E00C3941B7480AC
:1006580094805004C2058011C3EF9421EE64809405
:10066800805004D2058002C2057838E224FDB40720
:1006780000506E90068975F003A4C58325F0C583E4
:100688007302069E0206A90206B40206BF0206CA43
:100698000206D50206E07855740CF20874D2F2808E
:1006A800407855740CF20874EAF280357855740D68
:1006B800F2087402F2802A7855740DF208741AF25E
:1006C800801F7855740DF2087432F28014785574CE
:1006D8000DF208744AF280097855740DF2087462B4
:1006E800F2E47853F27853E2FFC39418748094804C
:1006F80040030208AFE408F2EF1216EA07320107D6
:100708003202076604076605079A07079A0807CEA4
:100718000A07CE0B08010D08010E082B10082B1133
:10072800085513085514000008817838E2FF3395FE
:10073800E0FEEF64034E60057831E27052EF640327
:100748004E60030208817831E2FF6003300540EF14
:10075800600302088120050302088102087C7838BA
:10076800E2FF3395E0FEEF64044E60057832E270F4
:100778001EEF64044E60030208817832E2FF6003D2
:1007880030050CEF6003020881200503020881028E
:10079800087C7838E2FF3395E0FEEF64054E60058B
:1007A8007833E2701EEF64054E60030208817833E7
:1007B800E2FF600330050CEF6003020881200503A7
:1007C80002088102087C7838E2FF3395E0FEEF6486
:1007D800064E60057834E2701EEF64064E60030230
:1007E80008817834E2FF600330050CEF60030208EB
:1007F80081200503020881807B7838E2FF3395E089
:10080800FEEF64074E60057835E27015EF64074E19
:1008180070677835E2FF6003300506EF705B3005DE
:100828005880517838E2FF3395E0FEEF64084E6057
:10083800057836E27015EF64084E703D7836E2FFB1
:100848006003300506EF703130052E80277838E2D6
:10085800FF3395E0FEEF64094E600418E27015EF6F
:1008680064094E70147837E2FF6003300506EF70B4
:100878000830050578547401F27855E2FE08E2F56F
:10088800828E83E493FF7854E2FEEF4EFF18E22451
:1008980008F8A6077853E204F27856E22401F21821
:0708A800E23400F20206ED4C
:0108AF002226
:102C12007BFE7A00793EAD079028C5E4937857F29F
:0A2C22009028D7E49308F202291964
:062E55001225BD022A0E49
:102C2C007BFE7A00793CAD079028C3E4937857F289
:0A2C3C009028D5E49308F20229194C
:102195007807E4F2087400F2087408F2E4FFEFC36C
:1021A5009410748094805020EF900E8293FE7807EF
:1021B500E2FB08E2FA08E2F9EE12162A0FE2240120
:1021C500F218E23400F280D6E4FF122BA7EFC39495
:1021D50005748094805038783CE275F005A42FF59D
:1021E50082E435F0F583E5822442F582E583340007
:1021F500F583E493FE7807E2FB08E2FA08E2F9EEDC
:0F22050012162A0FE22401F218E23400F280BE12
:0122140022A7
:102C46007BFE7A00793DAD079028C4E4937857F26D
:0A2C56009028D6E49308F202291931
:062E5B001225BD022A0E43
:102ADF007BFE7A007940AD079028C7E4937857F2D0
:102AEF009028D9E49308F21229197840E27812F26B
:032AFF00022309A6
:102215007807E4F2087400F2087408F2E4FFEFC3EB
:102225009410748094805020EF900E9293FE78075E
:10223500E2FB08E2FA08E2F9EE12162A0FE224019F
:10224500F218E23400F280D6E4FF122BA7EFC39414
:10225500057480948050387840E275F005A42FF518
:1022650082E435F0F583E5822442F582E583340086
:10227500F583E493FE7807E2FB08E2FA08E2F9EE5B
:0F22850012162A0FE22401F218E23400F280BE92
:012294002227
:102C60007BFE7A00793BAD079028C2E4937857F257
:0A2C70009028D4E49308F202291919
:10297E00783BE260067E0E7F5280047E0E7F6AE414
:10298E00FDEDC394187480948050158F828E83E46D
:10299E0093FC74082DF8A6040D0FBF00010E80E104
:0129AE002206
:102C7A007BFE7A00794BAD079028D2E4937857F21D
:0A2C8A009028E4E49308F2022919EF
:0F2DF9007807E4F2087400F2087408F20211F788
:1026A5007815E275F003A42406F582E4340FF5836A
:1026B500E493FF7805E2D39F402F7815E204F2E416
:1026C5007805F27815E2D39407748094804002E48B
:1026D500F27815E264047011300408D201780674AA
:0A26E50018F222E47815F2C2012277
:0D000E00783CE2640170037805F20226A53B
:070003002001031226A522D3
:102ABA00EFFD7C00C394A074809480400574C02FFD
:102ACA00FF22C3ED9420EC64809480400574E02FCB
:052ADA00FF227F1F2216
:101BED00780CE27853F27810E27854F2C3940574CD
:101BFD008094804012E4FF122BA77811E204F27852
:101C0D0053E204F2E408F27811E2C394187480945C
:101C1D00804003021CB4780BE2FF7853E2FEC39FB1
:101C2D0050697802E2FB08E2FA08E2F98E827583C8
:101C3D00001215DBFEFF122ABAAE077854E2FFC37D
:101C4D00940574809480503B75F005EEA42FF582B9
:101C5D00E435F0F583E5822468F582E5833401F5FA
:101C6D0083E493FF64A5601B7811E2C3941874801C
:101C7D0094805008122BA77811E204F27854E204F4
:101C8D00F280B87853E204F2E408F27811E2C394DA
:101C9D0018748094804003021C14E4FF122BA77863
:071CAD0011E204F2021C1415
:011CB400220D
:102DC900C201E4780CF27810F27815F27805F22253
:101F6700200103021FF87806E2D39400748094805E
:101F77004005E214F280057810E204F2780BE2FFE4
:101F870008E2FEB5070280667810E2C39405748004
:101F97009480503C7802E2FB08E2FA08E2F98E826C
:101FA7007583001215DBFF122ABA7810E2FE75F06E
:101FB70005EFA42EF582E435F0F583E5822468F574
:101FC70082E5833401F583E49364A570037405F215
:101FD7007810E2D39405748094804015780CE2045D
:101FE700F2E47810F2780BE2FF08E2B50703122D4E
:011FF700C920
:011FF80022C6
:1027BA00E47811F2200103022DC97806E2D39400CD
:1027CA007480948040247806E2FF7811E2FEC39F69
:1027DA00500CE4FF122BA77811E204F280E8EEC352
:0E27EA0094187480948050058000121BED221C
:102DD900EF14780BF27802EBF208EAF208E9F22232
:01000A0022D3
:102D5C00438E805389F0758A34758CFBC28DD28C6E
:032D6C00D2A922C7
:092E3E00122D5C12000AD2AF2231
:03000B0002260CBE
:10260C00C0E0C0F0C083C082C0D075D000C000C094
:10261C0001C002C003C004C005C006C00712188B5D
:10262C007816E204F2E2D39424748094804005E49A
:10263C00F2121D78D007D006D005D004D003D002FA
:0F264C00D001D000D0D0D082D083D0F0D0E032F7
:03001B00022E664C
:012E66003239
:072E47004392C04391C02239
:102B0200EF44E8F5BC00000000E5BC30E4FB53BC38
:102B1200EFAFBDEF75F004A4FFAEF0ADBEEF4DFF19
:012B22002290
:102D4800EF44E8F5BC00000000E5BC30E4FB53BCF0
:042D5800EFAFBD22FA
:102CC500EF7806C333CE33CED8F9FF7C027D7D1273
:082CD500164EC3744C9FFF2250
:102B23007F06122B027817EEF208EFF2122CC5780B
:102B33001BEFF27F07122D48EF131313541F08F2F4
:012B4300226F
:102A920000000001010100FF3B3B17071F0C63FF11
:102AA2000000001F003B005A0078009700B500D4D8
:082AB20000F301110130014E97
:102456007821E2FFD394027480948040047E008049
:10246600027E017823E2240CC39EFDEE75F00CA4D7
:102476002F24FEF9EDFF7820E22FFFE433FEED1363
:1024860013543F7C002FFBEC3EFAE975F01FA4FFC6
:10249600AEF07D0C1216A3EF2BFFEE3ACF24FFCF42
:1024A60034FFFE7C007D0712164EAF057822EFF250
:0524B60070037407F241
:0124BB0022FE
:102A3C007821E2FFFD7C00640270107823E25403DD
:102A4C0060047E1D80027E1CAF0622D3ED9407EC41
:0B2A5C006480948040010FEF441EFFD7
:012A6700224C
:102B8400C2CD7E08EED3940074809480400FEF137E
:0D2B94009295D2CDC2CDEFC313FF1E80E796
:012BA1002211
:102B4400E4FF7E08EED39400748094804012EF1367
:102B5400FFD2953095034480FFD2CDC2CD1E80E4D0
:012B6400224E
:102D6F00C2C0C2CDD2C0122B84AF05122B84D2CDDC
:032D7F00C2C022AD
:102D0A00C2C0C2CDD2C0EF4401FF122B84122B44A1
:042D1A00D2CDC2C094
:012D1E002292
:0F2E08003005047D808002E4FD7F8E122D6F2245
:1029AF00E2FE25E04480FFEE7C007BFE241DF9EC67
:0729BF003400FA1215C2FDFD
:1029C6007855EFF2AC05C205122E08AF04122D821F
:0929D600AD077855E2FF022D6FF8
:1026EF007F80122D0A7853EFF230E71F7820741095
:1026FF00F2087406F278237413F2122B65781D74A6
:10270F0001F20804F20804F2122BF712283678228D
:10271F00E27853F21224567822E2FF7853E26F6088
:04272F0003122B6501
:012733002283
:102BF700E47854F27854E2D3940274809480500AB3
:0A2C07001229AF7854E204F280EACB
:012C110022A0
:102B650012245678547403F27854E2D39406748090
:0E2B75009480500A1229AF7854E204F280EAEC
:012B8300222F
:10283600C2C0C2CDD2C07FBF122B84E47854F278D6
:1028460054E2D3940674809480501D122B44122EA9
:10285600177854E27C007BFE241DF9EC3400FAEF75
:0C28660012162AE204F280D7D2CDC2C0C4
:012872002243
:041ED4007853EFF25E
:101ED8007824E2FFFD7C00241DF9EC3400FA7854E4
:101EE80074FEF208EAF208E9F27BFF749A2DF9EC25
:101EF800342AFA1215C2FEEF2492F9EC342AFA12A7
:101F080015C208F27824E264037005122A3CAE0771
:101F18007853E2FF08E2FB08E2FA08E2F9EF12164A
:101F2800087854E2FB08E2FA08E2F91215C2FFD376
:101F3800EE6480F8EF64809840067857E212162A1B
:101F48007854E2FB08E2FA08E2F91215C2FF08E247
:0E1F5800C36480F8EF6480985004EE12162ADD
:011F66002258
:10294C007824E2601424FE600E14600B14600824DA
:10295C00FE601024057015800678247403F222782A
:10296C002480057824E214F2E214F2227824740212
:02297C00F22245
:1027F8007823E2540370127821E2D394027480940F
:102808008040067E007F0180047E007F007821E200
:1028180025E024A0F582E4342AF58318E2FD74014A
:0E282800932DFDE4933400CD2FFFED3EFE22F4
:0F2E1700EFC4540F75F00AA4FEEF540F2EFF22E4
:102D8200EF75F00A84C454F0FEEF75F00A84E5F0A2
:032D92002EFF22EF
:1028FC00812B0082280000812A00812CFA812D0076
:07290C008225000081270075
:101D7800E4FF20B1010F20B304EF4402FFEF602A13
:101D88007827E2FEB5071D18E22401F218E23400B4
:101D9800F208E2647D700218E27035EEC454F078FF
:101DA8002DF2802C7827EFF280267825E2FE08E2D3
:101DB800FFD39419EE64809480400FEF947DEE6415
:101DC800809480500508E2782DF2E47825F208F234
:101DD800782CE26005E214F28020782C74FAF2186C
:101DE800E26003E214F27829E2700218E2600B78EC
:101DF80029E224FFF218E234FFF2782AE26005E2D1
:101E080014F2800E7829E2700218E26005782A74CC
:101E1800FAF2782AE2540ED3940874809480400F22
:101E2800782CE2D3947D748094804005C2CC22D271
:011E3800CCDD
:011E39002286
:102DE900782AEFF2782C74FAF2E47828F208F222C1
:062E4E00782DE2FFE4F222
:012E5400225B
:102CF40000000000000000000000FF01173B01017C
:062D04000101010101FFC5
:012E67002248
:012E68002247
:102BBF007838E2FF3395E0FEC3EF9409EE6480941A
:0C2BCF00804003E4F2227838E204F22295
:041FF9007853EFF238
:101FFD007838E2FFFD3395E0FC742E2DF974003C2A
:10200D00FA785474FEF208EAF208E9F27BFF74FFE5
:10201D002DF9742C3CFA1215C2FEEFFD3395E0FC40
:10202D0074F42DF9742C3CFA1215C2FF7853E2FDAD
:10203D0008E2FB08E2FA08E2F9ED1216087854E21C
:10204D00FB08E2FA08E2F91215C2FDD3EE6480F83E
:10205D00ED6480984004EF12162A7854E2FB08E2F2
:10206D00FA08E2F91215C2FDC3EF6480F8ED648041
:07207D00985004EE12162A30
:012084002239
:10001E000000000000080800001C1C00003636001E
:10002E00002436000024240000240000003030009C
:10003E00000606007F7F417F7F00007F7F000F4F0D
:10004E004979794149497F7F7878087F7F79794965
:10005E004F0F7F7F494F0F4040407F7F7F7F497F0B
:10006E007F7879497F7F3040454830705070003E30
:10007E007F6341417C447C00007C5C547454547C0E
:10008E0070107C75545C7C544940407C7C547C746C
:10009E00547C7F41417F00007F004F494979494997
:1000AE00497F7808087F7949494F7F49494F404039
:1000BE00407F7F49497F7949497F3E45413E002136
:1000CE007F0123454931425169460C14245F725118
:1000DE00514E1E294906404F5060367F49363049F1
:1000EE004A3C7E41413F00407F000F494939494912
:1000FE00493E7C04041F7849490F7F4949076040F7
:10010E00403F7E49493F7849493F7F63637F0060A6
:10011E007F006F6B6B7B6B6B6B7F7878087F7B7B65
:10012E004B4F7F7F494F40407F7F7F6B6B7F79695D
:10013E00497F007F417F00007F00004F49790049D1
:10014E00497F0078087F0079494F007F494F004072
:10015E00407F007F497F0079497F000000A5A57D83
:10016E00A5A5A5A5700070A5A5147F147F14122A4D
:10017E007F2A24626408132336495522055060A550
:10018E00A5A51C2241A5A541221CA5A514083E0823
:10019E001408083E08080506A5A5A504040404A530
:1001AE0001A5A5A5A502040810203E41413EA500CB
:1001BE00217F01A521434539A522414936A50C14BD
:1001CE00247FA57251514EA53E494926A540474868
:1001DE0070A536494936A53249493EA512A5A5A5B1
:1001EE00A50112A5A5A508142241A51414141414D2
:1001FE0041221408A520404548303E415D553C1F24
:10020E002444241F7F494949363E414141227F41C2
:10021E0041221C7F494949417F484848403E414957
:10022E00492F7F0808087F417F41A5A50201417E25
:10023E00407F081422417F010101A57F2018207FF5
:10024E007F1008047F3E4141413E7F484848303E82
:10025E004145423D7F484C4A31324949492640404A
:10026E007F40407E0101017E700C030C707E010EFA
:10027E00017E6314081463700807087043454951E2
:10028E00617F4141A5A50C123F120441417FA5A5F6
:10029E00102040201001010101014020A5A5A5025A
:1002AE001515150F7F0911110E0E111111020E11D8
:1002BE0011097F0E1515150C083F484020182525ED
:1002CE00253E7F0810100F115F01A5A50201115EDA
:1002DE00A57F040A11A5417F01A5A51F100C100FC3
:1002EE001F08100FA50E1111110E3F2422221C1CE7
:1002FE002222243F1F081008A50815151502107E8E
:10030E001101021E0101021F18060106181E010628
:10031E00011E110A040A11180505051E11131519DF
:10032E0011083641A5A57FA5A5A5A5413608A5A509
:10033E0008100810A5A5A5A5A5A5021E3F1E0230F2
:10034E0049294936184525451E0201417E402A1C81
:10035E00771C2A3F202020607F7F7F7F7F7F7F7FDB
:10036E007F7F3F692969217F7F7F7F7F3E4949419A
:10037E002208142A14227F7F7F7F7F1E2927211EA9
:10038E007F7F7F7F7F413F41A5A5003048483009E0
:10039E00097D0909417F41A5A5115F01A5A51F1082
:1003AE001058A57F7F7F7F7F7F7F7F7F7F7F7F7FBF
:1003BE007F7F0E5515550C7F7F7F7F7F0E15151194
:1003CE000A22142A14087F7F7F7F7F7F7F7F7F7FA3
:1003DE007F7F7F7F7F511F51A5A53F4444443F7FC0
:1003EE00494949467F494949367F40404060033E6E
:1003FE00427E037F4949494177087F087741494941
:10040E0049367F0408107F3F0264083F7F0814229C
:10041E0041011E20407F7F2018207F7F0808087F23
:10042E003E4141413E7F4040407F7F484848303EFC
:10043E004141412240407F4040700909097E3C42C3
:10044E00FF423C63140814637F01017F01700808AA
:10045E00087F7F017F017F7E027E027F407F090938
:10046E00067F0906007F7F0911110E224149493E80
:10047E007F083E413E314A4C487F021515150F1E2E
:10048E00292949061F15150AA51F101018A5030EB8
:10049E00121E030E1515150C1B041F041B1115152A
:1004AE000AA51F0204081F1F4224481F1F040A1119
:1004BE00A50708101FA51F0804081F1F04041FA569
:1004CE000E1111110E1F10101FA51F1412120C0E5B
:1004DE001111110210101F1010180505051E0C1217
:1004EE009F120C110A040A111F01011F01180404A6
:1004FE001FA51F011F011F1E021E021F101F050533
:10050E00021F0502001F1F050502A50A1115150E73
:0A051E001F040E110E081516141F1D
:0D2E2600E4F5C7F5C5F5C675C380F5C422F7
:102CDD0075C78375C5018FC4EEF5C375C65A75C624
:072CED00A500AFC2022E2674
:102C940075C78375C5028FC4EEF5C3AF058FC275C2
:092CA400C65A75C6A500022E26D1
:102D1F0075C78375C5038FC4EEF5C375C65A75C6DF
:052D2F00A500022E26A4
:1028AF00FF00020000010500071E010101010100E8
:1028BF000000FF0001000000000000000000000009
:1028CF00000000F7FF01050404010701173B010198
:0628DF00010101010109E5
:03291300813959AE
:1023EC00D205E47854F27854E2FFC39409748094D3
:1023FC0080501D7E007BFE74412FF9EE3400FA12E2
:10240C0015C2F46004C20580077854E204F280D649
:10241C00300536E47854F27854E2FFC39412748099
:10242C0094805022EF7C007BFF24AFF9EC3428FA27
:10243C001215C2FEEF1B243AF9EC3400FAEE121618
:09244C002AE204F280D112277784
:012455002264
:10287300E47853F27853E2FDC39412748094805049
:10288300287839E225E0FE7C00E42DFFEC3EFE12C1
:102893002CDD7853E27C007BFE243AF9EC3400FA19
:0C28A300EF12162AE204F280CB0223ECB4
:102777007839E27F0025E0FE122D1FE47855F278C4
:1027870055E2FDC394127480948050267839E2256F
:10279700E0FE7C00E42DFFEC3EFE7BFE743A2DF953
:1027A700EC3400FA1215C2FD122C947855E204F2AB
:0227B70080CDD3
:0127B90022FD
:1008B000D120CDCEC2DBCC20C3CEC4CECC212121D1
:1008C00000D0EEE6E4E5F1F2E2EE20F5F0E8F1F238
:1008D000EEE2EE2E00D1F2E0F0FBE920CDEEE2FBFD
:1008E000E920E3EEE42E00CAF0E5F9E5EDE8E520C5
:1008F000C3EEF1EFEEE4EDE52E00D2E0F2FCFFED09
:10090000E8ED20E4E5EDFC2E00C4E5EDFC20E2F18D
:10091000E5F520E2EBFEE1EBB8EDEDFBF52E00C4D2
:10092000E5EDFC20E7E0F9E8F2EDE8EAE020CEF2C0
:10093000E5F7E5F1F2E2E02E00CCE5E6E4F3EDE0E8
:10094000F0EEE4EDFBE920E6E5EDF1EAE8E920E48C
:10095000E5EDFC2E00C4E5EDFC20ECEEF0FFEAE056
:100960002DEFEEE4E2EEE4EDE8EAE02E00C4E5ED82
:10097000FC20F1ECE5F5E02E00C4E5EDFC20EAEE0C
:10098000F1ECEEEDE0E2F2E8EAE82E00CFF0E0E78D
:10099000E4EDE8EA20C2E5F1EDFB20E820D2F0F337
:1009A000E4E02E00C4E5EDFC20EFEEE1E5E4FB2100
:1009B000212100C4E5EDFC20EFE8EEEDE5F0E8E8EC
:1009C0002E00C4E5EDFC20EFEEE3F0E0EDE8F7EDFE
:1009D000E8EAE02E00C4E5EDFC20E7E0F9E8F2FBF0
:1009E00020E4E5F2E5E92E00C4E5EDFC20D0CED10F
:1009F000D1C8C82E00C4E5EDFC20ECEEEBEEE4E53A
:100A0000E6E82E00C4E5EDFC20F1E5ECFCE82C2046
:100A1000EBFEE1E2E820E820E2E5F0EDEEF1F2E8BD
:100A20002E00C4E5EDFC20C2EEE7E4F3F8EDEE2D78
:100A3000E4E5F1E0EDF2EDFBF520E2EEE9F1EA2E7E
:100A400000C4E5EDFC20C2EEE5EDEDEE2DE2EEE7B3
:100A5000E4F3F8EDFBF520F1E8EB2E00C4E5EDFC46
:100A600020E7EDE0EDE8E92E00C4E5EDFC20F2E53D
:100A7000F1F2E8F0EEE2F9E8EAE02E00C4E5EDFC80
:100A800020F3F7E8F2E5EBFF2E00C4E5EDFC20F0E3
:100A9000EEE6E4E5EDE8FF20C4E5E4E020CCEEF08E
:100AA000EEE7E02E00C4E5EDFC20FDEDE5F0E3E52A
:100AB000F2E8EAE02E00C4E5EDFC20EFF0EEE3F012
:100AC000E0ECECE8F1F2E02E00C4E5EDFC20ECE512
:100AD000E4E8F6E8EDF1EAEEE3EE20F0E0E1EEF234
:100AE000EDE8EAE02E00C4E5EDFC20F1E8F1F2E5E6
:100AF000ECEDEEE3EE20E0E4ECE8EDE8F1F2F0E01E
:100B0000F2EEF0E02E00C4E5EDFC20C2EEE5EDEDE6
:100B1000EE2DCCEEF0F1EAEEE3EE20D4EBEEF2E0D7
:100B20002E00CCE5E6E4F3EDE0F0EEE4EDFBE920A9
:100B3000E4E5EDFC20EFE8E2E02E00C4E5EDFC206A
:100B4000F1F2F0EEE8F2E5EBFF2E00C4E5EDFC205B
:100B5000F2E0EDEAE8F1F2E02E00C4E5EDFC20E081
:100B6000E2F2EEECEEE1E8EBE8F1F2E02E00C4E5B3
:100B7000EDFC20ECE0F2E5F0E82E0001011108B0F8
:100B800001071408C1010E1208D501131308E7016B
:100B9000190F08FA020E16090902171A091F03088D
:100BA0001C0939031318095504010C096D040C13B1
:100BB0000979050118098C05090F09A405130F0906
:100BC000B3051C1309C206011309D5060C0D09E86B
:100BD000061B0F09F507081E0A0408021F0A22084F
:100BE0000C1B0A4109010D0A5C0909130A690A056F
:100BF0000E0A7C0B121B0A8A0C16110AA56100133F
:100C00000AB636071D0AC97705200AE677071C0BC6
:100C1000061805190B222807100B3B29070F0B4B51
:0A0C20007A07140B5A7B070D0B6EC8
:02291600C104FA
:10237C007822E27854F2E4FFEFC3940574809480E1
:10238C005009744C2FF8E4F20F80ED7820E2785469
:10239C00F27854E2FD3395E0FCD3ED9407EC6480C5
:1023AC0094804006E224F9F280E7122A3CAE07E45E
:1023BC00FFEFC39405748094805024EEFD7854E2B2
:1023CC00F9FB3395E0FAD3EB9D7480F86A98500FC3
:0F23DC00744C2FF8E9F20F7854E22407F280D204
:0123EB0022CF
:102BDB007850E2FF700C7820E2FE784FE2B5060ADF
:0C2BEB00D3227820E2B50702D322C322D7
:102DA700744C2FF8E2FF7820E2FEEFB50602D3223B
:022DB700C32235
:10171600C20412237CE47853F27853E2FFC3942385
:1017260074809480400302188A30040302188AEFFA
:1017360075F005A4247BF582E4340BF583E493FF6E
:1017460054F0FEC4540F1424FB503F70030217DB01
:10175600147003021815240760030218807853E2F8
:1017660075F005A4247CF582E4340BF583E493FE3E
:101776007820E2FDEE6D6003021882EF540FFF0839
:10178600E26F600302188202184C7853E2FF75F08C
:1017960005A4247BF582E4340BF583E493FE540F11
:1017A600FD7821E26D6003021882EF75F005A4242E
:1017B6007CF582E4340BF583E493FF08E26F600363
:1017C600021882EE5470C4540F14FF122DA7400362
:1017D60002188280711227F8AC06AD077853E2FB37
:1017E60075F005A4247BF582E4340BF583E4935469
:1017F60001FEEB75F005A4247CF582E4340BF58339
:10180600E493FBEB6D7002EC6E7071D204803B7852
:1018160053E2FF75F005A4247BF582E4340BF583CF
:10182600E493540FFE7821E26E7051EF75F005A433
:10183600247CF582E4340BF583E493FF08E26F70B1
:101846003B122BDB5036D2047853E2FE75F005A42A
:10185600247DF582E4340BF583E493FFEE75F00501
:10186600A4247EF582E4340BF583E493FC7401939F
:10187600AA04F97BFF122DD98002C2047853E20430
:04188600F202171F34
:01188A00223B
:101E5400020F1BE493A3F8E493A34003F68001F27A
:101E640008DFF48029E493A3F85407240CC8C3338F
:101E7400C4540F4420C8834004F456800146F6DF5E
:101E8400E4800B01020408102040809028E5E47EE1
:101E9400019360BCA3FF543F30E509541FFEE49353
:101EA400A360010ECF54C025E060A840B8E493A31A
:101EB400FAE493A3F8E493A3C8C582C8CAC583CA45
:101EC400F0A3C8C582C8CAC583CADFE9DEE780BEFD
:0129180000BE
:1015A000C2D530F707B2D563F0FF05F030E70CB2D3
:1015B000D5F4048463F0FF05F080018430D502F493
:0215C000042203
:1015C200BB010689828A83E0225002E722BBFE0227
:0915D200E32289828A83E493225A
:1015DB00BB010CE58229F582E5833AF583E02250C5
:1015EB0006E92582F8E622BBFE06E92582F8E2220F
:0D15FB00E58229F582E5833AF583E4932229
:10160800BB010989828A83F8E028F022500327F772
:1016180022BBFE05F8E328F3228A838982F8E49343
:02162800282276
:10162A00BB010689828A83F0225002F722BBFE019F
:02163A00F32299
:10163C00EF8DF0A4A8F0CF8CF0A428CE8DF0A42EC2
:02164C00FE227C
:10164E00BC000BBE0029EF8DF084FFADF022E4CC80
:10165E00F875F008EF2FFFEE33FEEC33FCEE9DEC49
:10166E00984005FCEE9DFE0FD5F0E9E4CEFD22ED8F
:10167E00F8F5F0EE8420D21CFEADF075F008EF2FD9
:10168E00FFED33FD4007985006D5F0F222C398FDCA
:05169E000FD5F0EA2267
:1016A300C2D5EC30E709B2D5E4C39DFDE49CFCEE62
:1016B30030E715B2D5E4C39FFFE49EFE12164EC376
:1016C300E49DFDE49CFC800312164E30D507C3E471
:0616D3009FFFE49EFE22D1
:1016D900F5F0C582A4C582C5F0C583A42583F58329
:0116E90022DE
:1016EA00D083D082F8E4937012740193700DA3A38F
:1016FA0093F8740193F5828883E4737402936860A3
:06170A00EFA3A3A380DFA2
:061710008A838982E47364
:00000001FF
