:03000000021E32AB
:101E320078FFE4F6D8FD9000007F007E07E4F0A36F
:0A1E4200DFFCDEFA758120021E8726
:102C68001227F8122106122DF9122E0212267412BA
:082C78002E22782474FFF222E1
:100F0B0078537401F2122C687FFA122D507F141251
:100F1B002DA4782C7402F23003FDC2037813E27512
:100F2B00F00A84E5F07027780DE2FF600964026037
:100F3B001DEF64036018782CE270067402F2122A1B
:100F4B00DE12228D7815E264046003121706122E4E
:100F5B00097852EFF26012C394107480948050049D
:100F6B007F1480027F28122DA47852E2FF24FE60AA
:100F7B001A24F2700302102F24F070030210D824ED
:100F8B001F600302112178537401F2EF64027005A4
:100F9B00785374FFF2780DE2B40B00400302112179
:100FAB00900FB2F8282873020FD3020FD5020FDF70
:100FBB00020FDF020FE9020FF3020FFD021007020F
:100FCB00101102101B02102580467853E2FF122CE1
:100FDB00EF0211217853E2FF121ECC02112178533C
:100FEB00E2FF121FF10211217853E2FF122C1B02B8
:100FFB0011217853E2FF122BCD0211217853E2FF1E
:10100B00122BE70211217853E2FF122C010211215E
:10101B007853E2FF122A9A0211217853E2FF122C25
:10102B0035021121780DE2B40B004003021121901F
:10103B001041F82828730210620210650210980202
:10104B0010A20210B30210D40210D40210D402105A
:10105B00D40210D40210D4021108780AE2FF24FD46
:10106B00601A14601D24F9501F240960030211211A
:10107B0078247402F2780DEFF202112178247406B1
:10108B008003E47839F28000780AE280787824E2F1
:10109B007011122BB2807A7824E264037005122B44
:1010AB0020806E122907806E7839E2FF3395E0FEBF
:1010BB00EF4E7005782FE26006EF64094E70051253
:1010CB002E238005122B7A804D7F018046780DE20E
:1010DB00B40B0050419010E7F82828730211080256
:1010EB00110F02111C02111C021115021118021111
:1010FB0018021118021118021118021118780D7428
:10110B0001F28012E4780DF2800C122E227F028005
:10111B0002E4FF122A23780DE2B40B00505D90110C
:10112B0030F828287302115102115602115B02117B
:10113B006002116502116A02116F021174021179BA
:10114B0002117E02118312299A803012207D802B8E
:10115B001219DE8026121B088021120528801C1212
:10116B0029398017122E10801212218D800D122E0C
:10117B0016800812220D8003122DB47814E204F2AB
:10118B007813E204F23004117815E26404700A78E3
:10119B0013E254017003121F5F7814E2D3943B7473
:1011AB008094804002E4F27813E2D3943B748094F1
:1011BB00805003020F22E4F27805E204F27815E284
:1011CB0075F003A424F7F582E4340EF583E493FE63
:0C11DB00740193AA06F9121700020F22FB
:042E1C007F02DFFE54
:012E2000228F
:0A2DEE00EF60077E0ADEFE1F80F68C
:012DF80022B8
:102D5000EF600E0000007E0B7DBEDDFEDEFC1F80FE
:012D6000EF83
:012D6100224F
:100C2A0000007F7F40407F7F007F7F08087F7F0032
:100C3A00031F227E7F03000000007F7F49497F3621
:100C4A000040407F7F4040007F7F48487830000066
:100C5A0000003E7F41416322007F7F484878300090
:100C6A00031F227E7F0300000000707808087F7F40
:100C7A000040407F7F4040007F7F49497F36000027
:100C8A0000007F7F40407F7F0040407F7F404000E0
:100C9A007F7F08087F7F000000003E7F414163227A
:100CAA000060731B0F7C70007F7F49494F4600002C
:100CBA0000007F7F49497F36003E7F414163220021
:100CCA007F7F081463630000007C7C40407C7C00CA
:100CDA007C7C10107C7C000C3C48787C0C0000006A
:100CEA00007C7C54547C280040407C7C4040007C42
:100CFA007C5050702000000000387C44446C28006E
:100D0A007C7C50507020000C3C48787C0C00000021
:100D1A0000607010107C7C0040407C7C4040007C6D
:100D2A007C54547C28000000007C7C40407C7C0081
:100D3A0040407C7C4040007C7C10107C7C000000A1
:100D4A0000387C44446C280064741C187060007C71
:100D5A007C54545C48000000007C7C54547C28007D
:100D6A00387C44446C28007C7C10386C44000000B9
:100D7A000000607F7F60006F6F007F3F101F103F91
:100D8A007F007F7F49490000007F7F63361C001F78
:100D9A003F6C6C3F1F00607F7F60007F7F49490086
:100DAA00003F7F4C7F3F007F7F0303003F7F4C7FE4
:100DBA003F007F7F6C6C3700000000003E414171AC
:100DCA0049493E000000063A433A06000000000086
:100DDA00007F7F6868003E7F417F3E007F3F180C9E
:100DEA007E7F00607F7F6000007F7F41633E1C0042
:100DFA006F6F00327B496F26007F7F446C3800009A
:100E0A00007F3F101F103F7F006F6F007F7F6336A8
:100E1A001C007F7F6C6C3800007F7F497F36007F23
:100E2A007F6C6C37006F6F003E7F414D2E000000D3
:100E3A0000003E41417149493E00000000000000A7
:100E4A0011117D11110000000000000000007F7FD9
:100E5A00417F7F007F7F381C7F7F000000000000F9
:100E6A00000000007F7F417F7F007F7F6C6C007FE6
:100E7A007F6C6C0000000000607F7F6000730B7E57
:100E8A007C007F7F4C380036007F7F49497F3600DF
:100E9A007F7F4C4E7B310036000000705070003E60
:100EAA007F6341410000000011117D111100000013
:100EBA00007F413E0032492600207F002249360049
:100ECA003E413E002345390060F0F8FC7E3F7EFC3F
:100EDA00F8F0600060F0F8FC7E3F7EFCF8F06000FD
:100EEA0000001234555555555554321005000E025E
:100EFA00262A02262A02262A0000030000000000F1
:010F0A0000E6
:10283400811206810D00810A028105008115008143
:072844000000810100C180CA
:10210600E4F5937594FF75912075922FF595759664
:10211600FFF5B175B2F775B30175B4FF75C92075D2
:10212600CAFFC2C0C2CD7841E27812F2C2031225BC
:102136004E7807E4F2087400F2087408F2785474D2
:102146000EF20874D2F2E4FFEFC394187480948000
:1021560050347854E2FC08E2F5828C83E493FE78EE
:1021660007E2FB08E2FA08E2F9EE12161A0F7855B2
:10217600E22401F218E23400F27809E22401F218AE
:06218600E23400F280C209
:01218C002230
:102D74007580FF5390F075A00053B00B53C001222F
:10187B007801E2FEC394057480948050117812E2D3
:10188B00FDEEB50503122D747801E204F222E47823
:10189B0001F2122D7430020518E2FF80097800E284
:1018AB00FFC374179FFFEFB4180040030219679032
:1018BB0018C1F828287302190902190D021911020F
:1018CB00191502191902191D0219210219250219DC
:1018DB002902192D02193102193502193902193D44
:1018EB0002194102194502194902194D02195102F7
:1018FB00195502195902195D021961021965D2A015
:10190B00805AD2A18056D2A28052D2A3804ED2A4AA
:10191B00804AD2A58046D2A68042D2A7803ED2B4BE
:10192B00803AD2B58036D2B68032D2B7802ED2C1B1
:10193B00802AD2C28026D2C38022D2C4801ED290EB
:10194B00801AD2918016D2C78012D292800ED29377
:10195B00800AD2B28006D2C58002D2C630020AC338
:10196B0074179F2408F8E6805074082FF8E6FEC41D
:10197B00135402FDEEC413131354014DFE74082FC0
:10198B00F8E6FD13131354044EFEEDC31354084E27
:10199B00FE74082FF8E6FD25E054104EFEED3333B0
:1019AB003354204EFE74082FF8E6FDC43354404EDA
:1019BB00FEEDC433333354804EF4F5807800E204EB
:1019CB00F2E2C39418748094804007E4F22003027F
:0219DB00D20335
:0119DD0022E7
:102A2300EF24FE60030470173003FD122D74C2AF50
:102A3300EF640170051226FC80031227F8D2AFE47D
:0A2A4300780DF27805F27815F22202
:10228D001227BB781DE27069300068C200782FE21A
:10229D00603A781FE2FF7830E26F7030781EE2FF0F
:1022AD007831E2B507267822E27E007BFE2431F9F3
:1022BD00EE3400FA1215B2603A7840E2FF7C007DF0
:1022CD003C12162C7828EEF208EFF2227830E2FF5D
:1022DD003395E0FE781FE2D39FEE6480F87480980A
:1022ED004011781EE2700C783CE260077F28022DC9
:0322FD00A4D20068
:0123000022BA
:0C2542007807E4F2087400F2087408F254
:10254E00783FE214601514601C14602314602A8016
:10255E0000780E7400F20874A0F222780E7400F265
:10256E000874C8F222780E7400F20874F0F2227821
:10257E000E7401F2087418F222780E7401F20874C7
:03258E0040F222F6
:052B5D00E4FF122B62F1
:102B62007807E2FB08E2FA08E2F9EF12161AE22409
:082B720001F218E23400F22226
:1025E0007854740EF20874BAF2E4FFEFC3941874CE
:1025F00080948050347854E2FC08E2F5828C83E4C5
:1026000093FE7807E2FB08E2FA08E2F9EE12161AE6
:102610000F7855E22401F218E23400F27809E2243E
:0926200001F218E23400F280C25C
:01262900228E
:1013C200783EE224FE700302146E1470030214C706
:1013D20014700302150B240470297814E2FD7C00BA
:1013E200C3940F748094805005E4FF02154DC3ED41
:1013F200942DEC6480948050057F0302154DE4FF28
:1014020002154D7814E2FD7C00C39405748094802B
:101412005005E4FF02154DC3ED940DEC64809480F9
:1014220050057F0102154DC3ED9416EC6480948043
:1014320050057F0202154DC3ED9427EC6480948021
:1014420050057F0302154DC3ED9430EC6480948007
:1014520050057F0202154DC3ED9438EC64809480F0
:1014620050057F0102154DE4FF02154D7814E2FD8F
:101472007C00C39406748094805005E4FF02154DED
:10148200C3ED9412EC6480948050057F0302154DE5
:10149200C3ED941EEC6480948050057F0402154DC8
:1014A200C3ED942AEC6480948050057F0502154DAB
:1014B200C3ED9436EC6480948050057F0602154D8E
:1014C200E4FF02154D7814E2FD7C00C3940774809A
:1014D20094805004E4FF8073C3ED9416EC6480940E
:1014E2008050047F078064C3ED9425EC648094806F
:1014F20050047F038055C3ED9434EC648094805093
:10150200047F088046E4FF80427814E2FD7C00C339
:101512009407748094805004E4FF802FC3ED9416E6
:10152200EC6480948050047F018020C3ED9425EC0C
:101532006480948050047F028011C3ED9434EC6483
:1015420080948050047F018002E4FFE4FEEEC394A5
:101552000474809480503675F004EFA42EF582E472
:1015620035F0F583E582241EF582E5833400F583A8
:10157200E493FD7807E2FB08E2FA08E2F9ED1216BD
:0D1582001A0EE22401F218E23400F280C0DB
:01158F002239
:0424EF00785AEFF236
:1024F300E408F2785BE2FDC3940474809480503E58
:1025030018E275F004A47C002DFFEC35F0FE780F83
:10251300E22FFF18E23EFE8F82F583E493FD7807F6
:10252300E2FB08E2FA08E2F9ED12161A785BE2041C
:0E253300F27809E22401F218E23400F280B5D9
:012541002277
:1026B900E4FEEEC3940374809480503675F003EF02
:1026C900A42EF582E435F0F583E5822482F582E5CE
:1026D900833400F583E493FD7807E2FB08E2FA0806
:1026E900E2F9ED12161A0EE22401F218E23400F2B0
:0226F90080C09F
:0126FB0022BC
:05249A00E2FFE4FBFD80
:10249F007858EFF208EDF2701FEB600F18E275F04D
:1024AF000A84D3940074809480400D7858E275F0BC
:1024BF000A84FF1224EF8009122B5D122B62122B5C
:1024CF0062E4FF122B627859E2700B18E275F00A82
:1024DF0084AFF00224EF122B5D122B62122B6222BB
:1029C900781FE2FDD3941874809480500A18E29419
:1029D9003C7480948040030225E0AF05E4FBFD12BE
:0E29E900249F1213C2781E12249A122B5D2214
:102441007821E2D3940C74809480500A18E294208D
:102451007480948040030225E07820E2FF7B01E450
:10246100FD12249FE4FFEFC39404748094805020F4
:10247100EF90002293FE7807E2FB08E2FA08E2F906
:10248100EE12161A0FE22401F218E23400F280D69D
:08249100782112249A122B5D40
:012499002220
:101D6F007822E214B407005070901D8675F003A41A
:101D7F00C58325F0C58373021D9B021DA6021DB1ED
:101D8F00021DBC021DC7021DD2021DDD7854740C4A
:101D9F00F208742AF2804B7854740CF2087442F2F1
:101DAF0080407854740CF208745AF2803578547469
:101DBF000CF2087472F2802A7854740CF208748A48
:101DCF00F2801F7854740CF20874A2F280147854C5
:101DDF00740CF20874BAF280097854740EF2087415
:101DEF00BAF2E4FFEFC3941874809480503478549F
:101DFF00E2FC08E2F5828C83E493FE7807E2FB08AD
:101E0F00E2FA08E2F9EE12161A0F7855E22401F2FF
:101E1F0018E23400F27809E22401F218E23400F2F9
:021E2F0080C26F
:011E3100228E
:1011E700784CE27855F2781BE2FF7855E22FF2E26D
:1011F700FEFD3395E0FCD3ED9463EC64809480406E
:101207006CE418F27854E2C39404748094805020FC
:101217007807E2FB08E2FA08E2F9E412161A7854B2
:10122700E204F27809E22401F218E23400F280D4F1
:10123700E47854F27854E2FFC394057480948050A4
:1012470026EF90007493FF7807E2FB08E2FA08E2C2
:10125700F9EF12161A7854E204F27809E22401F23F
:1012670018E23400F280CD122B5D021380EEFF33BB
:1012770095E0FED3EF9409EE648094804063E478B0
:1012870054F27854E2FFC3940574809480400302BB
:10129700131808E2FE75F00A121590FD3395E08DDC
:1012A70082F58374051216C9E5822FF582E435832A
:1012B700F583E5822442F582E5833400F583E493E0
:1012C700FF7807E2FB08E2FA08E2F9EF12161A784C
:1012D70054E204F27809E22401F218E23400F280C1
:1012E700A1E47854F27854E2C39405748094805052
:1012F700207807E2FB08E2FA08E2F9E412161A7806
:1013070054E204F27809E22401F218E23400F28090
:10131700D4E4FF122B62E47854F27854E2FFC394CA
:101327000574809480505208E2FE75F00A121590F9
:10133700AEF0EEFD3395E08D82F58374051216C984
:10134700E5822FF582E43583F583E5822442F58231
:10135700E5833400F583E493FF7807E2FB08E2FABC
:1013670008E2F9EF12161A7854E204F27809E22437
:1013770001F218E23400F280A1122B5DE47854F2F6
:101387007854E2FFC39409748094805026EF90004C
:101397007993FF7807E2FB08E2FA08E2F9EF121601
:1013A7001A7854E204F27809E22401F218E23400D0
:0B13B700F280CDE4FF122B62022B62DB
:1028A100781FE2FFC394187480948050257841E228
:1028B1006406701EEF781F30E009E2C313900EEA40
:1028C100938008E2C313900EEA93C4540FFF781269
:0328D100EFF22201
:10299A001225421228A17815E214600F14600F1450
:1029AA00600F14600F2404700E8010022441021D6F
:0F29BA006F0211E702273FE47815F21229C922B4
:1028D400ED1215F81215B2FF7859E2D36480F8EFBF
:1028E40064809840067858E212161A1215B2FF78DE
:1028F40058E2C36480F8EF64809850067859E21275
:03290400161A227E
:102CEF007BFE7A00790AAD0778587402F208740AED
:042CFF00F20228D4E1
:10207D00780AE224FEB40900505D90209575F003B6
:10208D00A4C58325F0C583730220B00220B60220BB
:10209D00BC0220C20220C80220CE0220D40220DAC7
:1020AD000220E07E0D7F7A802E7E0D7F9280287E2D
:1020BD000D7FAA80227E0D7FC2801C7E0D7FDA806F
:1020CD00167E0D7FF280107E0E7F0A800A7E0E7FB7
:1020DD002280047E0E7FA2E4FDEDC39418748094DB
:1020ED008050158F828E83E493FC74082DF8A6041E
:0820FD000D0FBF00010E80E190
:0121050022B7
:1019DE001225427813E2FF7E00C3940F7480948028
:1019EE005004C2058011C3EF942DEE648094805094
:1019FE0004D2058002C2057824E26003021A8B78B5
:101A0E0054F27854E2C3940974809480502078077D
:101A1E00E2FB08E2FA08E2F9E412161A7854E2043C
:101A2E00F27809E22401F218E23400F280D4E4786C
:101A3E0054F27854E2FFC39404748094805026EFDD
:101A4E0090002A93FF7807E2FB08E2FA08E2F9EF2A
:101A5E0012161A7854E204F27809E22401F218E21E
:101A6E003400F280CD781DE2FF7824E2FD700A305A
:101A7E000503ED60047D0180747D008070781FE2A7
:101A8E00FF7824E2FD6402700C300505ED640260FF
:101A9E00047D0180027D00E4FB12249FE47854F261
:101AAE007854E2FFC39404748094805026EF900023
:101ABE002A93FF7807E2FB08E2FA08E2F9EF121622
:101ACE001A7854E204F27809E22401F218E23400A2
:101ADE00F280CD781EE2FF7824E2FD6401700C30B6
:101AEE000505ED640160047D0180027D00E4FB12BA
:0A1AFE00249FE4FF122B62022B620A
:101B08001225427813E2FF7E00C3940F74809480FC
:101B18005004C2058011C3EF942DEE648094805068
:101B280004D2058002C2057824E264067035122BBF
:101B38005EE4FBFD7F1412249FE4FF122B627823DE
:101B4800E2FF08E2FD6406700C300505ED640660EE
:101B5800047D0180027D00E4FB12249FE4FF122B28
:101B680062806A7820E2FF7824E2FD6403700C301A
:101B78000505ED640360047D0180027D007B011290
:101B8800249FE4FFEFC39404748094805020EF9066
:101B9800002293FE7807E2FB08E2FA08E2F9EE1267
:101BA800161A0FE22401F218E23400F280D67821E6
:101BB800E2FF7824E2FD6404700C300505ED64044E
:101BC80060047D0180027D00E4FB12249FE4FF1283
:051BD8002B62022B62EC
:100528001225427839E2FF3395E0FEEF4E7050789D
:100538002FE278566009740EF2087452F28007743C
:100548000EF208746AF2E47854F27854E2FDC39427
:10055800187480948040030208AF7856E2FA08E2E3
:10056800F5828A83E493FC74082DF8A6047854E293
:1005780004F27857E22401F218E23400F280CBEF5B
:1005880064014E60117839E2FF3395E0FEEF6402B2
:100598004E600302064D7813E2FF7E00C3940F7489
:1005A8008094805004C2058011C3EF942DEE6480BE
:1005B80094805004D2058002C2057830E2FF783971
:1005C800E2FD3395E0FCED64014C700D300506ED5D
:1005D80064014C60047D0180027D00E4FB12249FCD
:1005E800E47854F27854E2FFC39404748094805001
:1005F80026EF90002A93FF7807E2FB08E2FA08E268
:10060800F9EF12161A7854E204F27809E22401F29A
:1006180018E23400F280CD7831E2FF7839E2FD3318
:1006280095E0FCED64024C700D300506ED64024C5B
:1006380060047D0180027D00E4FB12249FE4FF1228
:100648002B62022B627813E2FF7E00C3941B748036
:1006580094805004C2058011C3EF9421EE64809405
:10066800805004D2058002C2057839E224FDB4071F
:1006780000506E90068975F003A4C58325F0C583E4
:100688007302069E0206A90206B40206BF0206CA43
:100698000206D50206E07856740CF20874D2F2808D
:1006A800407856740CF20874EAF280357856740D66
:1006B800F2087402F2802A7856740DF208741AF25D
:1006C800801F7856740DF2087432F28014785674CC
:1006D8000DF208744AF280097856740DF2087462B3
:1006E800F2E47854F27854E2FFC39418748094804A
:1006F80040030208AFE408F2EF1216DA07320107E6
:100708003202076604076605079A07079A0807CEA4
:100718000A07CE0B08010D08010E082B10082B1133
:10072800085513085514000008817839E2FF3395FD
:10073800E0FEEF64034E60057832E27052EF640326
:100748004E60030208817832E2FF6003300540EF13
:10075800600302088120050302088102087C7839B9
:10076800E2FF3395E0FEEF64044E60057833E270F3
:100778001EEF64044E60030208817833E2FF6003D1
:1007880030050CEF6003020881200503020881028E
:10079800087C7839E2FF3395E0FEEF64054E60058A
:1007A8007834E2701EEF64054E60030208817834E5
:1007B800E2FF600330050CEF6003020881200503A7
:1007C80002088102087C7839E2FF3395E0FEEF6485
:1007D800064E60057835E2701EEF64064E6003022F
:1007E80008817835E2FF600330050CEF60030208EA
:1007F80081200503020881807B7839E2FF3395E088
:10080800FEEF64074E60057836E27015EF64074E18
:1008180070677836E2FF6003300506EF705B3005DD
:100828005880517839E2FF3395E0FEEF64084E6056
:10083800057837E27015EF64084E703D7837E2FFAF
:100848006003300506EF703130052E80277839E2D5
:10085800FF3395E0FEEF64094E600418E27015EF6F
:1008680064094E70147838E2FF6003300506EF70B3
:100878000830050578557401F27856E2FE08E2F56D
:10088800828E83E493FF7855E2FEEF4EFF18E22450
:1008980008F8A6077854E204F27857E22401F2181F
:0708A800E23400F20206ED4C
:0108AF002226
:102BCD007BFE7A00793FAD07902881E4937858F227
:0A2BDD00902893E49308F20228D434
:062E10001225420229C94F
:102BE7007BFE7A00793DAD0790287FE4937858F211
:0A2BF700902891E49308F20228D41C
:10218D007807E4F2087400F2087408F2E4FFEFC374
:10219D009410748094805020EF900E8293FE7807F7
:1021AD00E2FB08E2FA08E2F9EE12161A0FE2240138
:1021BD00F218E23400F280D6E4FF122B62EFC394E2
:1021CD0005748094805038783DE275F005A42FF5A4
:1021DD0082E435F0F583E5822442F582E58334000F
:1021ED00F583E493FE7807E2FB08E2FA08E2F9EEE4
:0F21FD0012161A0FE22401F218E23400F280BE2B
:01220C0022AF
:102C01007BFE7A00793EAD07902880E4937858F2F4
:0A2C1100902892E49308F20228D400
:062E16001225420229C949
:102A9A007BFE7A007941AD07902883E4937858F257
:102AAA00902895E49308F21228D47841E27812F239
:032ABA000228A14E
:10220D007807E4F2087400F2087408F2E4FFEFC3F3
:10221D009410748094805020EF900E9293FE780766
:10222D00E2FB08E2FA08E2F9EE12161A0FE22401B7
:10223D00F218E23400F280D6E4FF122B62EFC39461
:10224D00057480948050387841E275F005A42FF51F
:10225D0082E435F0F583E5822442F582E58334008E
:10226D00F583E493FE7807E2FB08E2FA08E2F9EE63
:0F227D0012161A0FE22401F218E23400F280BEAA
:01228C00222F
:102C1B007BFE7A00793CAD0790287EE4937858F2DE
:0A2C2B00902890E49308F20228D4E8
:10293900783CE260067E0E7F5280047E0E7F6AE458
:10294900FDEDC394187480948050158F828E83E4B2
:1029590093FC74082DF8A6040D0FBF00010E80E149
:01296900224B
:102C35007BFE7A00794CAD0790288EE4937858F2A4
:0A2C45009028A0E49308F20228D4BE
:0F2DB4007807E4F2087400F2087408F20211E7DD
:10262A007815E275F003A424F6F582E4340EF583F6
:10263A00E493FF7805E2D39F402F7815E204F2E491
:10264A007805F27815E2D39407748094804002E406
:10265A00F27815E264047011300408D20178067425
:0A266A0018F222E47815F2C20122F2
:0D000E00783DE2640170037805F202262AB5
:0700030020010312262A224E
:102A7500EFFD7C00C394A074809480400574C02F42
:102A8500FF22C3ED9420EC64809480400574E02F10
:052A9500FF227F1F225B
:101CA700780CE27854F27810E27855F2C394057410
:101CB7008094804012E4FF122B627811E204F278DC
:101CC70054E204F2E408F27811E2C39418748094A1
:101CD700804003021D6E780BE2FF7854E2FEC39F3B
:101CE70050697802E2FB08E2FA08E2F98E8275830E
:101CF700001215CBFEFF122A75AE077855E2FFC317
:101D0700940574809480503B75F005EEA42FF582FE
:101D1700E435F0F583E5822468F582E5833401F53F
:101D270083E493FF64A5601B7811E2C39418748061
:101D370094805008122B627811E204F27855E2047D
:101D4700F280B87854E204F2E408F27811E2C3941E
:101D570018748094804003021CCEE4FF122B627833
:071D670011E204F2021CCEA0
:011D6E002252
:102D8400C201E4780CF27810F27815F27805F22298
:101F5F00200103021FF07806E2D39400748094806E
:101F6F004005E214F280057810E204F2780BE2FFEC
:101F7F0008E2FEB5070280667810E2C3940574800C
:101F8F009480503C7802E2FB08E2FA08E2F98E8274
:101F9F007583001215CBFF122A757810E2FE75F0CB
:101FAF0005EFA42EF582E435F0F583E5822468F57C
:101FBF0082E5833401F583E49364A570037405F21D
:101FCF007810E2D39405748094804015780CE20465
:101FDF00F2E47810F2780BE2FF08E2B50703122D56
:011FEF00846D
:011FF00022CE
:10273F00E47811F2200103022D847806E2D394008D
:10274F007480948040247806E2FF7811E2FEC39FE4
:10275F00500CE4FF122B627811E204F280E8EEC312
:0E276F0094187480948050058000121CA722DC
:102D9400EF14780BF27802EBF208EAF208E9F22277
:01000A0022D3
:102D1700438E805389F0758A34758CFBC28DD28CB3
:032D2700D2A9220C
:092DF900122D1712000AD2AF22BC
:03000B000225913A
:10259100C0E0C0F0C083C082C0D075D000C000C010
:1025A10001C002C003C004C005C006C00712187BE9
:1025B1007816E204F2E2D39424748094804005E416
:1025C100F2121BDDD007D006D005D004D003D00213
:0F25D100D001D000D0D0D082D083D0F0D0E03273
:03001B00022E2191
:012E2100327E
:072E02004392C04391C0227E
:102ABD00EF44E8F5BC00000000E5BC30E4FB53BC7E
:102ACD00EFAFBDEF75F004A4FFAEF0ADBEEF4DFF5F
:012ADD0022D6
:102D0300EF44E8F5BC00000000E5BC30E4FB53BC35
:042D1300EFAFBD223F
:102C8000EF7806C333CE33CED8F9FF7C027D7D12B8
:082C9000163EC3744C9FFF22A5
:102ADE007F06122ABD7817EEF208EFF2122C8078DC
:102AEE001BEFF27F07122D03EF131313541F08F27F
:012AFE0022B5
:102A4D0000000001010100FF3B3B17071F0C63FF56
:102A5D000000001F003B005A0078009700B500D41D
:082A6D0000F301110130014EDC
:1023DB007821E2FFD394027480948040047E0080C5
:1023EB00027E017823E2240CC39EFDEE75F00CA453
:1023FB002F24FEF9EDFF7820E22FFFE433FEED13DF
:10240B0013543F7C002FFBEC3EFAE975F01FA4FF41
:10241B00AEF07D0C121693EF2BFFEE3ACF24FFCFCD
:10242B0034FFFE7C007D0712163EAF057822EFF2DB
:05243B0070037407F2BC
:012440002279
:1029F7007821E2FFFD7C00640270107823E2540323
:102A070060047E1D80027E1CAF0622D3ED9407EC86
:0B2A17006480948040010FEF441EFF1C
:012A22002291
:102B3F00C2CD7E08EED3940074809480400FEF13C3
:0D2B4F009295D2CDC2CDEFC313FF1E80E7DB
:012B5C002256
:102AFF00E4FF7E08EED39400748094804012EF13AD
:102B0F00FFD2953095034480FFD2CDC2CD1E80E415
:012B1F002293
:102D2A00C2C0C2CDD2C0122B3FAF05122B3FD2CDAB
:032D3A00C2C022F2
:102CC500C2C0C2CDD2C0EF4401FF122B3F122AFF72
:042CD500D2CDC2C0DA
:012CD90022D8
:0F2DC3003005047D808002E4FD7F8E122D2A22D0
:10296A00E2FE25E04480FFEE7C007BFE241DF9ECAC
:07297A003400FA1215B2FD52
:102981007856EFF2AC05C205122DC3AF04122D3DEE
:09299100AD077856E2FF022D2A81
:102674007F80122CC57854EFF230E71F7820741055
:10268400F2087406F278237413F2122B20781D7466
:1026940001F20804F20804F2122BB21227BB7822CA
:1026A400E27854F21223DB7822E2FF7854E26F607E
:0426B40003122B20C2
:0126B80022FF
:102BB200E47855F27855E2D3940274809480500AF6
:0A2BC20012296A7855E204F280EA55
:012BCC0022E6
:102B20001223DB78557403F27855E2D3940674804F
:0E2B30009480500A12296A7855E204F280EA75
:012B3E002274
:1027BB00C2C0C2CDD2C07FBF122B3FE47855F27896
:1027CB0055E2D3940674809480501D122AFF122D6B
:1027DB00D27855E27C007BFE241DF9EC3400FAEF35
:0C27EB0012161AE204F280D7D2CDC2C050
:0127F70022BF
:041ECC007854EFF265
:101ED0007824E2FFFD7C00241DF9EC3400FA7855EB
:101EE00074FEF208EAF208E9F27BFF74552DF9EC72
:101EF000342AFA1215B2FEEF244DF9EC342AFA1204
:101F000015B208F27824E2640370051229F7AE07CF
:101F10007854E2FF08E2FB08E2FA08E2F9EF121552
:101F2000F87855E2FB08E2FA08E2F91215B2FFD39D
:101F3000EE6480F8EF64809840067858E212161A32
:101F40007855E2FB08E2FA08E2F91215B2FF08E25E
:0E1F5000C36480F8EF6480985004EE12161AF5
:011F5E002260
:102907007824E2601424FE600E14600B146008241F
:10291700FE601024057015800678247403F222786F
:102927002480057824E214F2E214F2227824740257
:02293700F2228A
:10277D007823E2540370127821E2D394027480948A
:10278D008040067E007F0180047E007F007821E27C
:10279D0025E0245BF582E4342AF58318E2FD74010B
:0E27AD00932DFDE4933400CD2FFFED3EFE2270
:0F2DD200EFC4540F75F00AA4FEEF540F2EFF222A
:102D3D00EF75F00A84C454F0FEEF75F00A84E5F0E7
:032D4D002EFF2234
:10284B00812C00812A0082280000812B00812DFA27
:0A285B00812E008225000081270075
:101BDD00E4FF20B1010F20B304EF4402FFEF602AB0
:101BED007827E2FEB5071D18E22401F218E2340051
:101BFD00F208E2647D700218E27035EEC454F0789C
:101C0D002EF2802C7827EFF280267825E2FE08E26E
:101C1D00FFD39419EE64809480400FEF947DEE64B1
:101C2D00809480500508E2782EF2E47825F208F2CF
:101C3D00782DE26005E214F28028782D74FAF218FE
:101C4D00E26003E214F2782AE26003E214F27829EA
:101C5D00E2700218E2600B7829E224FFF218E234F8
:101C6D00FFF2782BE26005E214F2800E7829E27023
:101C7D000218E26005782B74FAF2782BE2540ED339
:101C8D00940874809480400F782DE2D3947D7480F5
:091C9D0094804005C2CC22D2CC97
:011CA600221B
:102DA400782BEFF2782D74FAF2E47828F208F22204
:062E0900782EE2FFE4F266
:012E0F0022A0
:102CAF0000000000000000000000FF01173B0101C1
:062CBF000101010101FF0B
:012E2200228D
:012E2300228C
:102B7A007839E2FF3395E0FEC3EF9409EE6480945E
:0C2B8A00804003E4F2227839E204F222D9
:041FF1007854EFF23F
:101FF5007839E2FFFD3395E0FC742F2DF974003C30
:10200500FA785574FEF208EAF208E9F27BFF74BA31
:102015002DF9742C3CFA1215B2FEEFFD3395E0FC58
:1020250074AF2DF9742C3CFA1215B2FF7854E2FD09
:1020350008E2FB08E2FA08E2F9ED1215F87855E234
:10204500FB08E2FA08E2F91215B2FDD3EE6480F856
:10205500ED6480984004EF12161A7855E2FB08E209
:10206500FA08E2F91215B2FDC3EF6480F8ED648059
:07207500985004EE12161A48
:01207C002241
:10001E000000000000080800001C1C00003636001E
:10002E00002436000024240000240000003030009C
:10003E00000606007F7F417F7F00007F7F000F4F0D
:10004E004979794149497F7F7878087F7F79794965
:10005E004F0F7F7F494F0F4040407F7F7F7F497F0B
:10006E007F7879497F7F3040454830705070003E30
:10007E007F6341417C447C00007C5C547454547C0E
:10008E0070107C75545C7C544940407C7C547C746C
:10009E00547C7F41417F00007F004F494979494997
:1000AE00497F7808087F7949494F7F49494F404039
:1000BE00407F7F49497F7949497F3E45413E002136
:1000CE007F0123454931425169460C14245F725118
:1000DE00514E1E294906404F5060367F49363049F1
:1000EE004A3C7E41413F00407F000F494939494912
:1000FE00493E7C04041F7849490F7F4949076040F7
:10010E00403F7E49493F7849493F7F63637F0060A6
:10011E007F006F6B6B7B6B6B6B7F7878087F7B7B65
:10012E004B4F7F7F494F40407F7F7F6B6B7F79695D
:10013E00497F007F417F00007F00004F49790049D1
:10014E00497F0078087F0079494F007F494F004072
:10015E00407F007F497F0079497F000000A5A57D83
:10016E00A5A5A5A5700070A5A5147F147F14122A4D
:10017E007F2A24626408132336495522055060A550
:10018E00A5A51C2241A5A541221CA5A514083E0823
:10019E001408083E08080506A5A5A504040404A530
:1001AE0001A5A5A5A502040810203E41413EA500CB
:1001BE00217F01A521434539A522414936A50C14BD
:1001CE00247FA57251514EA53E494926A540474868
:1001DE0070A536494936A53249493EA512A5A5A5B1
:1001EE00A50112A5A5A508142241A51414141414D2
:1001FE0041221408A520404548303E415D553C1F24
:10020E002444241F7F494949363E414141227F41C2
:10021E0041221C7F494949417F484848403E414957
:10022E00492F7F0808087F417F41A5A50201417E25
:10023E00407F081422417F010101A57F2018207FF5
:10024E007F1008047F3E4141413E7F484848303E82
:10025E004145423D7F484C4A31324949492640404A
:10026E007F40407E0101017E700C030C707E010EFA
:10027E00017E6314081463700807087043454951E2
:10028E00617F4141A5A50C123F120441417FA5A5F6
:10029E00102040201001010101014020A5A5A5025A
:1002AE001515150F7F0911110E0E111111020E11D8
:1002BE0011097F0E1515150C083F484020182525ED
:1002CE00253E7F0810100F115F01A5A50201115EDA
:1002DE00A57F040A11A5417F01A5A51F100C100FC3
:1002EE001F08100FA50E1111110E3F2422221C1CE7
:1002FE002222243F1F081008A50815151502107E8E
:10030E001101021E0101021F18060106181E010628
:10031E00011E110A040A11180505051E11131519DF
:10032E0011083641A5A57FA5A5A5A5413608A5A509
:10033E0008100810A5A5A5A5A5A5021E3F1E0230F2
:10034E0049294936184525451E0201417E402A1C81
:10035E00771C2A3F202020607F7F7F7F7F7F7F7FDB
:10036E007F7F3F692969217F7F7F7F7F3E4949419A
:10037E002208142A14227F7F7F7F7F1E2927211EA9
:10038E007F7F7F7F7F413F41A5A5003048483009E0
:10039E00097D0909417F41A5A5115F01A5A51F1082
:1003AE001058A57F7F7F7F7F7F7F7F7F7F7F7F7FBF
:1003BE007F7F0E5515550C7F7F7F7F7F0E15151194
:1003CE000A22142A14087F7F7F7F7F7F7F7F7F7FA3
:1003DE007F7F7F7F7F511F51A5A53F4444443F7FC0
:1003EE00494949467F494949367F40404060033E6E
:1003FE00427E037F4949494177087F087741494941
:10040E0049367F0408107F3F0264083F7F0814229C
:10041E0041011E20407F7F2018207F7F0808087F23
:10042E003E4141413E7F4040407F7F484848303EFC
:10043E004141412240407F4040700909097E3C42C3
:10044E00FF423C63140814637F01017F01700808AA
:10045E00087F7F017F017F7E027E027F407F090938
:10046E00067F0906007F7F0911110E224149493E80
:10047E007F083E413E314A4C487F021515150F1E2E
:10048E00292949061F15150AA51F101018A5030EB8
:10049E00121E030E1515150C1B041F041B1115152A
:1004AE000AA51F0204081F1F4224481F1F040A1119
:1004BE00A50708101FA51F0804081F1F04041FA569
:1004CE000E1111110E1F10101FA51F1412120C0E5B
:1004DE001111110210101F1010180505051E0C1217
:1004EE009F120C110A040A111F01011F01180404A6
:1004FE001FA51F011F011F1E021E021F101F050533
:10050E00021F0502001F1F050502A50A1115150E73
:0A051E001F040E110E081516141F1D
:0D2DE100E4F5C7F5C5F5C675C380F5C4223D
:102C980075C78375C5018FC4EEF5C375C65A75C669
:072CA800A500AFC2022DE1FF
:102C4F0075C78375C5028FC4EEF5C3AF058FC27507
:092C5F00C65A75C6A500022DE15C
:102CDA0075C78375C5038FC4EEF5C375C65A75C625
:052CEA00A500022DE130
:10286B00FF00020000010500071E0101010101002C
:10287B000000FF000100000000000000000000004D
:10288B00000000F7FF01050404010601173B0101DD
:06289B0001010101010929
:03286500813A595C
:10237100D205E47855F27855E2FFC394097480944C
:1023810080501D7E007BFE74422FF9EE3400FA125C
:1023910015B2F46004C20580077855E204F280D6D4
:1023A100300536E47855F27855E2FFC39412748013
:1023B10094805022EF7C007BFF246BF9EC3428FAE7
:1023C1001215B2FEEF1B243BF9EC3400FAEE1216A3
:0923D1001AE204F280D11226FC8C
:0123DA0022E0
:1027F800E47854F27854E2FDC394127480948050C3
:1028080028783AE225E0FE7C00E42DFFEC3EFE123B
:102818002C987854E27C007BFE243BF9EC3400FAD7
:0C282800EF12161AE204F280CB022371BA
:1026FC00783AE27F0025E0FE122CDAE47856F27884
:10270C0056E2FDC39412748094805026783AE225E8
:10271C00E0FE7C00E42DFFEC3EFE7BFE743B2DF9CD
:10272C00EC3400FA1215B2FD122C4F7856E204F27A
:02273C0080CD4E
:01273E002278
:1008B000D120CDCEC2DBCC20C3CEC4CECC212121D1
:1008C00000D0EEE6E4E5F1F2E2EE20F5F0E8F1F238
:1008D000EEE2EE2E00D1F2E0F0FBE920CDEEE2FBFD
:1008E000E920E3EEE42E00CAF0E5F9E5EDE8E520C5
:1008F000C3EEF1EFEEE4EDE52E00D2E0F2FCFFED09
:10090000E8ED20E4E5EDFC2E00C4E5EDFC20E2F18D
:10091000E5F520E2EBFEE1EBB8EDEDFBF52E00C4D2
:10092000E5EDFC20E7E0F9E8F2EDE8EAE020CEF2C0
:10093000E5F7E5F1F2E2E02E00CCE5E6E4F3EDE0E8
:10094000F0EEE4EDFBE920E6E5EDF1EAE8E920E48C
:10095000E5EDFC2E00C4E5EDFC20ECEEF0FFEAE056
:100960002DEFEEE4E2EEE4EDE8EAE02E00C4E5ED82
:10097000FC20F1ECE5F5E02E00C4E5EDFC20EAEE0C
:10098000F1ECEEEDE0E2F2E8EAE82E00CFF0E0E78D
:10099000E4EDE8EA20C2E5F1EDFB20E820D2F0F337
:1009A000E4E02E00C4E5EDFC20EFEEE1E5E4FB2100
:1009B000212100C4E5EDFC20EFE8EEEDE5F0E8E8EC
:1009C0002E00C4E5EDFC20EFEEE3F0E0EDE8F7EDFE
:1009D000E8EAE02E00C4E5EDFC20E7E0F9E8F2FBF0
:1009E00020E4E5F2E5E92E00C4E5EDFC20D0CED10F
:1009F000D1C8C82E00C4E5EDFC20ECEEEBEEE4E53A
:100A0000E6E82E00C4E5EDFC20F1E5ECFCE82C2046
:100A1000EBFEE1E2E820E820E2E5F0EDEEF1F2E8BD
:100A20002E00C4E5EDFC20C2EEE7E4F3F8EDEE2D78
:100A3000E4E5F1E0EDF2EDFBF520E2EEE9F1EA2E7E
:100A400000C4E5EDFC20C2EEE5EDEDEE2DE2EEE7B3
:100A5000E4F3F8EDFBF520F1E8EB2E00C4E5EDFC46
:100A600020E7EDE0EDE8E92E00C4E5EDFC20F2E53D
:100A7000F1F2E8F0EEE2F9E8EAE02E00C4E5EDFC80
:100A800020F3F7E8F2E5EBFF2E00C4E5EDFC20F0E3
:100A9000EEE6E4E5EDE8FF20C4E5E4E020CCEEF08E
:100AA000EEE7E02E00C4E5EDFC20FDEDE5F0E3E52A
:100AB000F2E8EAE02E00C4E5EDFC20EFF0EEE3F012
:100AC000E0ECECE8F1F2E02E00C4E5EDFC20ECE512
:100AD000E4E8F6E8EDF1EAEEE3EE20F0E0E1EEF234
:100AE000EDE8EAE02E00C4E5EDFC20F1E8F1F2E5E6
:100AF000ECEDEEE3EE20E0E4ECE8EDE8F1F2F0E01E
:100B0000F2EEF0E02E00C4E5EDFC20C2EEE5EDEDE6
:100B1000EE2DCCEEF0F1EAEEE3EE20D4EBEEF2E0D7
:100B20002E00CCE5E6E4F3EDE0F0EEE4EDFBE920A9
:100B3000E4E5EDFC20EFE8E2E02E00C4E5EDFC206A
:100B4000F1F2F0EEE8F2E5EBFF2E00C4E5EDFC205B
:100B5000F2E0EDEAE8F1F2E02E00C4E5EDFC20E081
:100B6000E2F2EEECEEE1E8EBE8F1F2E02E00C4E5B3
:100B7000EDFC20ECE0F2E5F0E82E0001011108B0F8
:100B800001071408C1010E1208D501131308E7016B
:100B9000190F08FA020E16090902171A091F03088D
:100BA0001C0939031318095504010C096D040C13B1
:100BB0000979050118098C05090F09A405130F0906
:100BC000B3051C1309C206011309D5060C0D09E86B
:100BD000061B0F09F507081E0A0408021F0A22084F
:100BE0000C1B0A4109010D0A5C0909130A690A056F
:100BF0000E0A7C0B121B0A8A0C16110AA56100133F
:100C00000AB636071D0AC97705200AE677071C0BC6
:100C1000061805190B222807100B3B29070F0B4B51
:0A0C20007A07140B5A7B070D0B6EC8
:02286800C104A9
:102301007822E27855F2E4FFEFC39405748094805B
:102311005009744D2FF8E4F20F80ED7820E27855E2
:10232100F27855E2FD3395E0FCD3ED9407EC64803F
:1023310094804006E224F9F280E71229F7AE07E41F
:10234100FFEFC39405748094805024EEFD7855E22C
:10235100F9FB3395E0FAD3EB9D7480F86A98500F3E
:0F236100744D2FF8E9F20F7855E22407F280D27D
:01237000224A
:102B96007851E2FF700C7820E2FE7850E2B5060A22
:0C2BA600D3227820E2B50702D322C3221C
:102D6200744D2FF8E2FF7820E2FEEFB50602D3227F
:022D7200C3227A
:10170600C204122301E47854F27854E2FFC394230E
:1017160074809480400302187A30040302187AEF2A
:1017260075F005A4247BF582E4340BF583E493FF7E
:1017360054F0FEC4540F1424FB503F70030217CB21
:10174600147003021805240760030218707854E227
:1017560075F005A4247CF582E4340BF583E493FE4E
:101766007820E2FDEE6D6003021872EF540FFF0859
:10177600E26F600302187202183C7854E2FF75F0BB
:1017860005A4247BF582E4340BF583E493FE540F21
:10179600FD7821E26D6003021872EF75F005A4244E
:1017A6007CF582E4340BF583E493FF08E26F600373
:1017B600021872EE5470C4540F14FF122D624003C7
:1017C600021872807112277DAC06AD077854E2FBD1
:1017D60075F005A4247BF582E4340BF583E4935479
:1017E60001FEEB75F005A4247CF582E4340BF58349
:1017F600E493FBEB6D7002EC6E7071D204803B7863
:1018060054E2FF75F005A4247BF582E4340BF583DE
:10181600E493540FFE7821E26E7051EF75F005A443
:10182600247CF582E4340BF583E493FF08E26F70C1
:101836003B122B965036D2047854E2FE75F005A47E
:10184600247DF582E4340BF583E493FFEE75F00511
:10185600A4247EF582E4340BF583E493FC740193AF
:10186600AA04F97BFF122D948002C2047854E20484
:04187600F202170F54
:01187A00224B
:101E4C00020F0BE493A3F8E493A34003F68001F292
:101E5C0008DFF48029E493A3F85407240CC8C33397
:101E6C00C4540F4420C8834004F456800146F6DF66
:101E7C00E4800B0102040810204080902834E47E9A
:101E8C00019360BCA3FF543F30E509541FFEE4935B
:101E9C00A360010ECF54C025E060A840B8E493A322
:101EAC00FAE493A3F8E493A3C8C582C8CAC583CA4D
:101EBC00F0A3C8C582C8CAC583CADFE9DEE780BE05
:01286A00006D
:10159000C2D530F707B2D563F0FF05F030E70CB2E3
:1015A000D5F4048463F0FF05F080018430D502F4A3
:0215B000042213
:1015B200BB010689828A83E0225002E722BBFE0237
:0915C200E32289828A83E493226A
:1015CB00BB010CE58229F582E5833AF583E02250D5
:1015DB0006E92582F8E622BBFE06E92582F8E2221F
:0D15EB00E58229F582E5833AF583E4932239
:1015F800BB010989828A83F8E028F022500327F783
:1016080022BBFE05F8E328F3228A838982F8E49353
:02161800282286
:10161A00BB010689828A83F0225002F722BBFE01AF
:02162A00F322A9
:10162C00EF8DF0A4A8F0CF8CF0A428CE8DF0A42ED2
:02163C00FE228C
:10163E00BC000BBE0029EF8DF084FFADF022E4CC90
:10164E00F875F008EF2FFFEE33FEEC33FCEE9DEC59
:10165E00984005FCEE9DFE0FD5F0E9E4CEFD22ED9F
:10166E00F8F5F0EE8420D21CFEADF075F008EF2FE9
:10167E00FFED33FD4007985006D5F0F222C398FDDA
:05168E000FD5F0EA2277
:10169300C2D5EC30E709B2D5E4C39DFDE49CFCEE72
:1016A30030E715B2D5E4C39FFFE49EFE12163EC396
:1016B300E49DFDE49CFC800312163E30D507C3E491
:0616C3009FFFE49EFE22E1
:1016C900F5F0C582A4C582C5F0C583A42583F58339
:0116D90022EE
:1016DA00D083D082F8E4937012740193700DA3A39F
:1016EA0093F8740193F5828883E4737402936860B3
:0616FA00EFA3A3A380DFB3
:061700008A838982E47374
:00000001FF
